:020000040800F2
:100000000000012099550608195606089DCE0408DF
:1000100021CF0408195606081956060800000000EA
:100020000000000000000000000000001956060853
:100030001956060800000000195606088DB5040878
:1000400019560608195606081956060819560608BC
:1000500019560608195606088DDA0408B9DB040893
:100060007DDB040841DB040805DB0408B530060825
:10007000A530060895300608853006087130060858
:100080005D30060849300608195606081956060854
:10009000195606081956060819560608C9DA04083A
:1000A0003D070608C50706082D070608ED070608E0
:1000B000B5070608A507060895070608693E06085D
:1000C0008D3E0608AD3D0608D13D060819560608C6
:1000D0001956060865C104081DBF0408D5BC0408EC
:1000E00051DA040819560608195606081D070608AD
:1000F0004D07060819560608750706083530060824
:100100001956060881F905088507060819560608D4
:100110008DBA040845B804081956060841F50008C8
:10012000213006080D300608F92F0608E52F0608CD
:10013000D12F0608000000000000000000000000B1
:10014000000000000000000000000000D9F90008D5
:10015000BD2F0608A92F0608952F0608FDB504082F
:10016000E93C0608113D0608195606081956060806
:100170001956060819560608000000000000000085
:10018000195606081956060819560608195606087B
:1001900019560608195606080000000019560608E8
:1001A00000000000000000000000000019560608D2
:1001B0001956060819560608000000000000000045
:1001C000000000000000000000000000000000002F
:1001D00000000000000000000000000019560608A2
:0801E000F050060001000000D0
:1001E8000E02010002000000F4590120545A0120B7
:1001F80000000000280A00081402010005000000A1
:1002080018300120585A0120000000002A0A00086E
:10021800232001001000000044590120605A0120E9
:10022800000000001D8502080D100100700000008C
:10023800C8580120705A012000000000C5FF0308BB
:10024800040008008000000008580120E05A01203E
:100258000000000000000000FD0101002400000073
:10026800AC570120605B012000000000AB86040849
:10027800FB0101000100000068570120845B012098
:10028800000000008D6D0508FC0101000900000058
:1002980034560120885B012000000000956D050898
:1002A800F70101000600000028560120945B012098
:1002B80000000000300A0008F901010004000000F5
:1002C800245601209C5B0120000000005987040887
:1002D800160215003F000000A42C0120A05B01209D
:1002E80000000000AD6D050834000100100000009A
:1002F80018550120E05B01200000000031A702082A
:100308001102010008000000F0540120F05B0120F8
:1003180000000000360A0008121201000400000064
:10032800E8540120F85B0120000000003E0A0008A4
:100338001820010032000000B4540120FC5B0120A9
:1003480000000000F57505081220010011000000EA
:10035800D4530120305C012000000000420A00084C
:10036800000201000B00000010510120445C012034
:1003780000000000D16D0508FF1101000600000013
:10038800B4500120505C0120000000007D6D05087C
:100398000812040014000000C0500120585C01201D
:1003A80000000000016E05081302010004000000AF
:1003B800842C01206C5C012000000000540A000815
:1003C800FA010100030000009C500120705C01202C
:1003D80000000000D96D05080A800100280000000F
:1003E80060500120745C01200000000009840208AC
:1003F800061001001C000000882C01209C5C0120D4
:1004080000000000816E05080202010003000000E0
:100418004C4A0120B85C01200000000000000000E8
:100428000C02010004000000284A0120BC5C0120E5
:1004380000000000F16D0508110001000C0000002B
:10044800FD3A0120C05C01200000000065FF0308A0
:10045800FE0101001400000088390120CC5C012055
:10046800000000001D6D0508030101000A000000DE
:10047800B4950120949601200000000059800108DD
:100488001B1001000C000000109C0120E4A10120B9
:1004980000000000858D010821020100F000000025
:1004A800789A0120F0A1012000000000419E010877
:1004B8002312010010000000909D0120E0A20120FD
:1004C80000000000580A0008371001002E00000044
:1004D8004CA10120F0A2012000000000680A0008D9
:1004E8001610010006000000889D012020A30120AD
:1004F80000000000960A00082F10010022000000EA
:10050800C0A1012028A30120000000009C0A0008C7
:100518001E000100090000001C9D01204CA30120C1
:1005280000000000BE0A00080510010006000000D7
:10053800689D012058A3012000000000C80A000897
:10054800F581010068000000089A012060A30120DD
:100558000000000025AC0108FD070100760000003E
:100568004E990120C8A30120000000000987010856
:10057800261001000E00000050A4012040A4012014
:1005880000000000818501080B3001001A000000FE
:100598003499012090A4012000000000CE0A000830
:1005A8001F3001002400000010990120ACA4012094
:1005B80000000000E80A000805020100040000002D
:1005C800A09D0120D0A40120000000000C0B000811
:1005D800140001000400000020B60120B4B6012078
:1005E80000000000100B0008012001000C000000B2
:1005F800B0AB0120B8B6012000000000140B0008C1
:100608000EF003009E010000C8A80120C4B6012016
:100618000000000079A70208130001000400000090
:10062800ACB6012064B8012000000000200B0008CF
:10063800010101000400000008A8012068B8012099
:10064800000000000000000000010100040000009C
:1006580000A801206CB8012000000000240B00084D
:100668000201010003000000FCA7012070B801206E
:1006780000000000FDC00308220201001C01000068
:1006880094B0012074B8012000000000AD75050881
:100698000C200600CC0000008CAA012090B9012093
:1006A80000000000BDC00308010201000B000000AB
:1006B80014A801205CBA012000000000C16D0508E3
:1006C8001B0201001000000080AE012068BA012062
:1006D800000000006D6E0508203201000A000000CD
:1006E800E4C70120F0C701200000000055A7020858
:1006F8001500100070000000A4C60120FCC70120EE
:1007080000000000000000002A000800600000004F
:10071800B4C501206CC801200000000009A7020828
:100728002C00040010000000DCC80120CCC8012007
:1007380000000000E9A402082B00120024000000B9
:1007480010C90120ECC8012000000000BDA4020867
:10075800292014007800000048C3012034C9012072
:100768000000000000000000190201001000000055
:10077800ECC20120ACC9012000000000B16D0508E1
:10078800F62101000C000000BCC00120BCC90120FA
:1007980000000000280B00081C0202001C000000DA
:1007A80064C001200CCA0120000000001D77050864
:1007B800282001001800000080C0012028CA01205C
:1007C800000000000DAC0208041201000200000045
:1007D80038C2012040CA012000000000340B000884
:1007E8000F0201000100000034C2012044CA0120A8
:1007F80000000000360B0008031201003D00000055
:10080800C8CF01204CD0012000000000380B0008A0
:1008180025201E002C0100002CCD01208CD00120A9
:10082800000000000000000010100100020000009D
:1008380014CD0120B8D1012000000000760B00087B
:10084800F821010006000000F4CC0120BCD10120F1
:1008580000000000780B00081900010005000000E6
:1008680064CC0120C4D10120000000007E0B0008E8
:100878001A0001000E00000050CB0120CCD101204D
:1008880000000000840B000829020100400000005D
:1008980098D401209CDA012000000000920B000887
:1008A8000A02010014000000ECD90120FCDA012042
:1008B8000000000089C003080300010001000000D7
:1008C8008CDA012010DB012000000000000000008D
:1008D800020001000C00000064DE0120F8DE0120A7
:1008E80000000000000000002802040004000000CE
:1008F8009CE1012094E6012000000000696E0508D3
:10090800270204000400000098E1012098E6012075
:10091800000000005D6E05081F02080010000000BE
:1009280088E101209CE6012000000000356D0508E3
:100938001A0201003C00000048E10120ACE6012059
:10094800000000006576050838100100010000006D
:1009580024DF0120E8E6012000000000D20B000897
:100968002700010004000000A4E70120ACE70120F3
:1009780000000000D40B00080B1201003C0000002E
:1009880064E8012040FA012000000000D80B0008AC
:100998000D1201001400000018F501207CFA012056
:1009A80000000000140C000807020100020000000B
:1009B80028FA012090FA012000000000280C000805
:1009C8001D0202000600000080F9012094FA0120AF
:1009D80000000000000000000602040010000000F3
:1009E80088F901209CFA012000000000E176050842
:1009F800390001000500000098F90120ACFA012037
:100A080000000000E16D050810020100010000006F
:100A1800441A0220401A0220000000002A0C000894
:100A28000000000000FF00000000010000000000BE
:100A3800000001010101FFFFFFFF000000010000AD
:100A48000553375832000000000200000000010082
:100A5800000000000000000000000000000000008E
:100A680020003200C800D007960014003200280089
:100A78004C0440060005500014000F0008006400F4
:100A88000100010005000A000000F4019600C409F5
:100A98000000190000000000000000000000000035
:100AA800000000000000000000000000000000003E
:100AB8000000000000000005010000000000000028
:100AC800200003010000AE014A015E012C01640010
:100AD8000200000001000A019A01001E0A0000023B
:100AE80000000000000100000005000001020300F2
:100AF80000000000000000000000000000000000EE
:100B0800008007000000000003000023E8036400E1
:100B1800040A000114001E0000204030900100006B
:100B280000000000010000000202000000000000B8
:100B380000000000000000000000000000000000AD
:100B4800000000000000000000000000000000009D
:100B5800000000000000000000000000000000008D
:100B68000000000000000000000000000100000577
:100B78000101F40114000000280100007E05EA05C7
:100B8800B4053200E803D0070000000000000000B0
:100B9800000000000000000000000000000000004D
:100BA800000000000000000000000000000000003D
:100BB800000000000000000000000000000000002D
:100BC80000000000000000000000000020030000FA
:100BD800000000000000000000000000000000000D
:100BE80000000000000000000000000000000000FD
:100BF80000000000000000000000000000000000ED
:100C080000000000000000000100000000000000DB
:100C180000000000000000000000000000000000CC
:030C2800003C008D
:100C2B0000C20100000008000A060002000000409C
:100C3B000100000009026400030100C03209040036
:100C4B0000010300000009211101000122360007F9
:100C5B0005830308000A080B0102020201000904C4
:100C6B00010001020201000524001001052401000E
:100C7B000204240202052406010207058203080070
:100C8B00FF09040200020A000000070501024000F0
:100C9B000007058102400000852C0108852B010807
:100CAB00B95201080000000089210108154F010805
:100CBB00B52101080000000000000000000000004A
:100CCB0069210108792101085921010849210108ED
:100CDB001A030000000000000000000000000000EC
:100CEB0000000000000000000000000004030904E5
:100CFB00FFFFFFFF120100020000004083042A5790
:100D0B000002010203010000120100020200004078
:100D1B00830440570002010203010000120100028C
:100D2B00EF0201408304563200020102030100006E
:100D3B000060024010600240000000000000000054
:100D4B00000B00000000000000000000000000008D
:100D5B00006002402860024001000000000000001B
:100D6B00060C000000000000000000000000000066
:100D7B0000600240406002400200000000000000E2
:100D8B00100D00000000000000000000000000003B
:100D9B0000600240586002400300000000000000A9
:100DAB00160E000000000000000000000000000014
:100DBB000060024070600240040000000000000070
:100DCB00200F0000000000000000000000000000E9
:100DDB000060024088600240050000000000000037
:100DEB0026100000000000000000000000000000C2
:100DFB0000600240A06002400600000000000000FE
:100E0B003011000000000000000000000000000096
:100E1B0000600240B86002400700000000000000C4
:100E2B00362F000000000000000000000000000052
:100E3B00006402401064024000000000000000004B
:100E4B00003800000000000000000000000000005F
:100E5B000064024028640240010000000000000012
:100E6B000639000000000000000000000000000038
:100E7B0000640240406402400200000000000000D9
:100E8B00103A00000000000000000000000000000D
:100E9B0000640240586402400300000000000000A0
:100EAB00163B0000000000000000000000000000E6
:100EBB000064024070640240040000000000000067
:100ECB00203C0000000000000000000000000000BB
:100EDB00006402408864024005000000000000002E
:100EEB00264400000000000000000000000000008D
:100EFB0000640240A06402400600000000000000F5
:100F0B003045000000000000000000000000000061
:100F1B0000640240B86402400700000000000000BB
:100F2B00364600000000000000000000000000003A
:100F3B00100000007D00000000000000D1930008AD
:100F4B0079AF00088D930008B9B00008B194000880
:100F5B00C98B0008B58B0008998B0008492A01083A
:100F6B0031290108792A01085D340108293F01085C
:100F7B00D9340108A9200108A18B0008918B000826
:100F8B00010000000000803F0A0600020000004044
:100F9B000100000009072000010104C03209040010
:100FAB0000020806500507058102400000070501F5
:100FBB000240000009022000010104C032090400B4
:100FCB0000020806500507058102400000070501D5
:100FDB000240000009022000010104C03209040094
:100FEB0000020806500507058102000200070501F3
:100FFB00020002000A06000200000040010000008F
:10100B0009022200010100E0320904000001030182
:10101B000200092111010001223600070583030894
:10102B00000A000009022200010100E0320904005D
:10103B000001030102000921110100012236000702
:10104B00058303080007000009022200010100E0EC
:10105B003209040000010301020009211101000102
:10106B002236000705830308000A00000A06000267
:10107B00000000400100000009074300020104C00A
:10108B0032090400000102020100052400100105D1
:10109B002401000104240202052406000107058235
:1010AB000308001009040100020A000000070501F3
:1010BB0002400000070581024000000009024300C6
:1010CB00020100C0320904000001020201000524E4
:1010DB00001001052401000104240202052406006E
:1010EB00010705820308001009040100020A000031
:1010FB000007050102000200070581020002000043
:10110B0009024300020100C032090400000102027F
:10111B000100052400100105240100010424020232
:10112B0005240600010705820308001009040100CD
:10113B00020A0000000705010240000007058102BA
:10114B004000000000FF0000000000000000AA5556
:10115B0007010000AA55050100000800849A060843
:10116B00FF1FFF1F05010905A101A10005010930A2
:10117B000931093209330935093409360937158123
:10118B00257F7508950881020509190129081500A5
:10119B002501950875018102C0C0000009211101CC
:1011AB0000012236002D202D2D202D2D2D2D202D13
:1011BB002D2D2D000000000000000000000000009D
:1011CB0000000000AA550B010000AA550501000004
:1011DB00AA550902000000AA5503009F0100000058
:1011EB00C012000001010000000001FFFFFFFFFF24
:1011FB007EFF0000FFFFFFFF88A40120000000001E
:10120B0060A401200000000001000000FC2B070877
:10121B00782B07080000000071C10308A0860100AD
:10122B0004000000000000000000000000000000AF
:10123B0000000000000000000000000000000000A3
:10124B00000000000000000000000000FC2B07085D
:10125B00042C070800000000D9990408E8030000DB
:10126B00040000000000000000000000000000006F
:10127B000000000000000000000000000000000063
:10128B000000000000000000000000000C2C07080C
:10129B000000000000000000551000007D00000061
:1012AB00FF00000000000000000000000000000034
:1012BB000000000000000000000000000000000023
:1012CB000000000000000000000000008C56070822
:1012DB000000000000000000890600007D000000F7
:1012EB00FF000000000000000000000000000000F4
:1012FB0000000000000000000000000000000000E3
:10130B000000000000000000000000002C37070860
:10131B000000000000000000E51300007D0000004D
:10132B00FF000000000000000000000000000000B3
:10133B0000000000000000000000000000000000A2
:10134B00000000000000000000000000142C070843
:10135B000000000000000000FD900408E8030000FE
:10136B00030000000000000000000000000000006F
:10137B000000000000000000000000000000000062
:10138B00000000000000000000000000182C0708FF
:10139B000000000000000000995203081027000015
:1013AB00030000000000000000000000000000002F
:1013BB000000000000000000000000000000000022
:1013CB00000000000000000000000000A052070811
:1013DB0000000000B5A002088DCF04085F76000066
:1013EB0005000000000000000000000000000000ED
:1013FB0000000000000000000000000000000000E2
:10140B00000000000000000000000000305607083C
:10141B0000000000000000002DF30408102700005E
:10142B0001000000000000000000000000000000B0
:10143B0000000000000000000000000000000000A1
:10144B00000000000000000000000000242C070832
:10145B000000000000000000B5830408E803000052
:10146B00050000000000000000000000000000006C
:10147B000000000000000000000000000000000061
:10148B00000000000000000000000000302C0708E6
:10149B000000000000000000D5C70308204E00002C
:1014AB00030000000000000000000000000000002E
:1014BB000000000000000000000000000000000021
:1014CB00000000000000000000000000402C070896
:1014DB000000000000000000BDC50308204E000006
:1014EB0003000000000000000000000000000000EE
:1014FB0000000000000000000000000000000000E1
:10150B00000000000000000000000000502C070845
:10151B0000000000000000003D960408400D030091
:10152B0003000000000000000000000000000000AD
:10153B0000000000000000000000000000000000A0
:10154B00000000000000000000000000602C0708F5
:10155B000000000000000000B14B04081027000041
:10156B00010000000000000000000000000000006F
:10157B000000000000000000000000000000000060
:10158B00000000000000000000000000A42B070872
:10159B000000000000000000CD0E02081027000024
:1015AB00030000000000000000000000000000002D
:1015BB000000000000000000000000000000000020
:1015CB00000000000000000000000000682C07086D
:1015DB00000000000000000001B60208A086010018
:1015EB0001000000000000000000000000000000EF
:1015FB0000000000000000000000000000000000E0
:10160B00000000000000000000000000702C070824
:10161B0000000000000000007D8F040850C3000094
:10162B0001000000000000000000000000000000AE
:10163B00000000000000000000000000000000009F
:10164B00000000000000000000000000782C0708DC
:10165B000000000000000000498D0408A086010076
:10166B00000000000000000000000000000000006F
:10167B00000000000000000000000000000000005F
:10168B00000000000000000000000000842C070890
:10169B00000000000000000035890408A86100006C
:1016AB00010000000000000000000000000000002E
:1016BB00000000000000000000000000000000001F
:1016CB00000000000000000000000000902C070844
:1016DB00000000000000000049590208A08601002C
:1016EB0001000000000000000000000000000000EE
:1016FB0000000000000000000000000000000000DF
:10170B000000000000000000000000009C2C0708F7
:10171B000000000000000000E9000408A00F00001A
:10172B0001000000000000000000000000000000AD
:10173B00000000000000000000000000000000009E
:10174B00000000000000000000000000A82C0708AB
:10175B0000000000000000000DEB01081027000046
:10176B00010000000000000000000000000000006D
:10177B00000000000000000000000000000000005E
:10178B00000000000000000000000000B42C07085F
:10179B00000000000000000015000408A00F00006E
:1017AB00010000000000000000000000000000002D
:1017BB00000000000000000000000000000000001E
:1017CB00000000000000000000000000C02C070813
:1017DB00000000000000000035E301081A41000082
:1017EB0001000000000000000000000000000000ED
:1017FB0000000000000000000000000000000000DE
:10180B00000000000000000000000000C42C0708CE
:10181B000000000000000000898001081027000074
:10182B0001000000000000000000000000000000AC
:10183B00000000000000000000000000000000009D
:10184B000000000000000000000000008C2B0708C7
:10185B0000000000000000003163020850C30000CC
:10186B00010000000000000000000000000000006C
:10187B00000000000000000000000000000000005D
:10188B00000000000000000000000000D02C070842
:10189B00000000000000000005310108400D0300AE
:1018AB00000000000000000000000000000000002D
:1018BB00000000000000000000000000000000001D
:1018CB00000000000000000000000000D82C0708FA
:1018DB00000000000000000081FF0308400D030022
:1018EB0000000000000000000000000000000000ED
:1018FB0000000000000000000000000000000000DD
:10190B00000000000000000000000000E02C0708B1
:10191B0000000000000000009945020850C30000C1
:10192B0003000000000000000000000000000000A9
:10193B00000000000000000000000000000000009C
:10194B00000000000000000000000000EC2C070865
:10195B000000000000000000F9E0030840420F0007
:10196B00000000000000000000000000000000006C
:10197B00000000000000000000000000000000005C
:10198B00000000000000000000000000F82C070819
:10199B000000000000000000C100040850C300005C
:1019AB00000000000000000000000000000000002C
:1019BB00000000000000000000000000000000001C
:1019CB0000000000000000000000000001FF01000B
:1019DB00E0010000FFFFFFFF01000000C1F801085C
:1019EB00000000000000000024A106080800000011
:1019FB004257020000000106425702000000010698
:101A0B00000000000000000000000000C8BA06083B
:101A1B0000000000000000000000000080BB060872
:101A2B000000000000000000000000002CBB0608B6
:101A3B000000000000000000452A020885AF0120CD
:101A4B00010100005D520208E5530208000000008E
:101A5B00FCBC0608A95102080000000000000000B1
:101A6B0060BC0608C555020800000000000000001D
:101A7B0018BC06082D202D2D202D2D2D2D202D2D84
:101A8B002D0000000000000000000000000000001E
:101A9B0000000000FFFFFFFFFD3C020800000000FC
:101AAB000000000058BA060801000000FA00000010
:101ABB000100000001000000A8AB01200000F401B0
:101ACB0001000000A6AB01200000F40101000000A2
:101ADB00A4AB01200000F40101000000A2AB012027
:101AEB000000F40101000000A0AB01200000F40194
:101AFB00010000009EAB01200000F401010000007A
:101B0B009CAB01200000F401010000001D01020844
:101B1B00E100020800000000D8A606088CAB0120EB
:101B2B00053201009AAB01206400F40101000000B2
:101B3B0098AB01206400C409010000008AAB0120AE
:101B4B00E803D0070100000088AB0120E803D007B1
:101B5B000100000086AB0120E803D0070100000064
:101B6B0084AB01201E00B80B0100000092AB0120DA
:101B7B0005000F000100000094AB012003000A00D8
:101B8B000100000082AB01201E00F40101000000E7
:101B9B0096AB01200200000064A7060880AB012071
:101BAB0014006400010000008EAB01203200E8033A
:101BBB00010000007EAB01200000C8000100000006
:101BCB0089AA012000C8010088AA01200050010049
:101BDB0087AA0120005A010085AA012002000000FB
:101BEB0070A70608742E07087C2E07089A59012047
:101BFB000100C40900000000985901200100C4092C
:101C0B0000000000965901200100C40900000000EB
:101C1B00945901200100C4090000000090590120D3
:101C2B000100C40900000000925901200100C40901
:101C3B00000000008E5901200100C40900000000C3
:101C4B008C5901200100C4090000000033A80120B9
:101C5B0000C8010032A8012000C8010030A80120F3
:101C6B000000FFFF0A0000002EA801200100C800A1
:101C7B00010000002CA8012032003075320000005A
:101C8B002AA801207EFF14000500000028A80120CF
:101C9B0005002C010500000027A80120055A0500AE
:101CAB0024A8012000FF010026A80120020000004B
:101CBB00C40F012022A8012003000000049C060889
:101CCB0023A8012000FF010025A80120020000002D
:101CDB00C40F012021A8012003000000049C06086A
:101CEB007100020801000208000000007CA7060832
:101CFB00C0AB0120EE02CA0801000000BEAB012000
:101D0B0000C8010064000000BDAB012000C8010049
:101D1B0064000000BCAB01200200000088A806088C
:101D2B000EA801200000803E050000000CA8012039
:101D3B0080C1803E0500000006A801200083007DC5
:101D4B000500000004A8012080C1803E05000000B2
:101D5B00FFA7012000FF0100F8A701206400F40198
:101D6B0001000000F6A701200400000094A806085B
:101D7B00F5A7012002000000A8A80608B9A80120B9
:101D8B000D000000B4A80608B6A8012000640100ED
:101D9B00B4A80120320010270A000000B2A80120CD
:101DAB000D000000B4A80608B1A801200D0000002A
:101DBB00B4A80608B0A8012002000000ECA8060891
:101DCB00000000000000000000000000F8A806085A
:101DDB00C6AB01203E00000030A90608C4AB0120B1
:101DEB000100FF7F01000000C3AB012002000000D7
:101DFB002CAA0608BBA80120030000003CAA060879
:101E0B00BAA80120030000003CAA060876AA01200C
:101E1B00000A010074AA01200000E8030100000081
:101E2B0072AA01200000E8030100000070AA012043
:101E3B000000E803010000006EAA01200000E80387
:101E4B000100000066AA01200000E8030100000069
:101E5B006CAA01200000E803010000006AAA01201F
:101E6B000000E8030100000068AA01200014010033
:101E7B0084AA0120020000004CAA060882AA0120B5
:101E8B000000F4010100000080AA01200000F40111
:101E9B00010000007EAA01200000F40101000000F7
:101EAB007CAA01200000F401010000007AAA0120A5
:101EBB000000A00F0100000078AA01200000A00F75
:101ECB00010000006BAB0120196401006AAB01201B
:101EDB000200000058AA060868AB0120E803D007EF
:101EEB000A00000066AB0120006401000A0000003C
:101EFB005BAB0120006401005AAB012000640100C0
:101F0B0062AB0120006401000A00000061AB0120FC
:101F1B00006401000A00000060AB012000640100B6
:101F2B000A00000065AB012000FF01000A00000061
:101F3B0064AB012000FF01000A00000063AB01202D
:101F4B0000FF01000A0000005FAB012001FF010050
:101F5B000A0000005EAB012001FF01000A00000037
:101F6B005DAB012001FF01000A000000C4A80120A5
:101F7B000000F40101000000C2A801200000A00F26
:101F8B0001000000C0A801200000A00F010000000C
:101F9B00BEA801200000A00F01000000BCA801207A
:101FAB000000A00F01000000CDAF012000C8010010
:101FBB00CCAF012000640100CBAF01200064010015
:101FCB00CAAF012000640100C9AF01200064010009
:101FDB00C8AF0120FF080100C7AF01200164010059
:101FEB0069FF01082DFF01080000000064AA060824
:101FFB00D0AF012001320100CFAF01200100000062
:10200B00D4AA0608CEAF012004000000DCAA060803
:10201B00C6AF012000640100C4AF01201400E80327
:10202B0001000000C2AF0120E80330750A00000078
:10203B00C1AF012000C80100C0AF012000C80100E2
:10204B00BFAF012000C80100BEAF0120003201006C
:10205B00D2AF0120004B0100D1AF012004000000E2
:10206B00F0AA0608BDAF0120006401000A000000C1
:10207B00E0AF01200000D00701000000DBAF012022
:10208B0000C80100DAAF012000C80100D9AF012060
:10209B0000C80100DEAF01200000D00701000000E6
:1020AB00D8AF012000C80100D7AF012000C8010044
:1020BB00D6AF012000C80100DCAF01200000D00723
:1020CB0001000000D5AF012000C80100D4AF0120F2
:1020DB0000C80100D3AF012000C8010021FD010899
:1020EB0009FD01080000000004AB0608ADA80120A3
:1020FB00005A0100ACA8012000C80100AAA80120C9
:10210B00E803D00701000000000000000000000001
:10211B00852A0208A0AB060853544D333246375874
:10212B003200000020A80120000301001FA801209D
:10213B000003010045FC0108F9FB01080000000049
:10214B00F4AB0608B9FB010871FB010800000000A5
:10215B0090AC060891FC0108E13C0208000000006D
:10216B0010AD060810A8012001030100F9010208B7
:10217B00CD0102080000000068B00608F5FA01085E
:10218B00A9FA010800000000D8B0060831FD0108CB
:10219B00918202080000000074B106087941020820
:1021AB0025020208000000001CB2060881FD010890
:1021BB000000000000000000A8B206085DFE010848
:1021CB0005FE0108000000000CB30608F1FE010833
:1021DB00B5FE010800000000B4B306088D7F0208AD
:1021EB00A5FF01080000000040B406087DAB0120EC
:1021FB0001060100C9FD010895FD01080000000062
:10220B003CB50608BF7E0208813E020800000000B4
:10221B00ACB50608D97F0208493F02080000000050
:10222B00FCB606087CAB012001030100D9FC0108B8
:10223B00A9FC010800000000D0B706083580020891
:10224B00000000000000000034B8060841FB010844
:10225B00C93C020800000000B4B8060800000000EA
:10226B00000000000000000040B90608D9FF01087B
:10227B00C13F020800000000B0B9060800000000D2
:10228B000000000000000000C8BB060840960120BB
:10229B009CFF2C010000000044B20120E0150C173C
:1022AB000000000019AF01200200000000BC06086E
:1022BB00F1A70120020000000CBC0608ECA70120CE
:1022CB0088136F1701000000EEA7012088136F170A
:1022DB0000000000DE59012000000000000000009B
:1022EB00DC5901200000000000000000DA59012039
:1022FB000000000000000000D85901200000000081
:10230B0000000000D6590120000000000000000072
:10231B00D45901200000000000000000C00501207E
:10232B00000000000000000076A701200300000061
:10233B0060BD0608E4A7012088136F170100000099
:10234B008A96012088136F170000000089F9010895
:10235B00000000000000000070BD06081AAF01204D
:10236B0001000000C4BD06088C960120010000008E
:10237B00D0BD06088296012002000000D8BD0608D9
:10238B00000000000000000000000000E4BD060893
:10239B0071F90108000000000000000080BE060873
:1023AB00000000000000000000000000D4BE060882
:1023BB0000000000000000000000000044BF060801
:1023CB00F0A70120020000007CBF060886960120C2
:1023DB00E0150C170000000000BC012054BC0120CC
:1023EB00D60101010001010100FF0100FFFFFFFF0A
:1023FB000000803F00000000000000000000000013
:10240B0000000000000000000000000000000000C1
:10241B0000000000000000000000803F00000000F2
:10242B0000000000000000000000803F00000000E2
:10243B0000000000000000000000803F00000000D2
:10244B000000000000000000010000000000FA4343
:10245B000000FA43FFFFFFFFFF0000000000803F7A
:10246B00C14D040800000000000000000000000047
:10247B0000000000ECDA0120080000000000000062
:10248B00DCDA01200800000001000000A00F0000B2
:10249B00B80B000002FFFF01918A0008758A000843
:1024AB00318A000800000000258A0008118A000804
:1024BB00FD89000800000000000000000000000083
:1024CB0000000000ED89000800000000DD89000815
:1024DB00C58F0008858B00084D8B0008618B0008A9
:1024EB00058B0008F18A0008DD8A00086597000853
:1024FB00D989000855890008F1F70008685E0C00BF
:10250B00FFFFFFFF020000009452070800000802C3
:10251B0005030400000000009C520708010008029C
:10252B000504040000000000285107080200FE010A
:10253B000110030000000000DC3107080300140247
:10254B000003000000000000A452070804001F0253
:10255B000200080000000000AC52070805001F0233
:10256B000201080000000000FFFF0000FFFFFFFF5B
:10257B000B010000D12B0108312B01081150010870
:10258B000000000000000000E54D01081D4E010891
:10259B00000000000000000000000000ED2001081A
:1025AB00DD200108CD200108BD200108757F05083D
:1025BB00497F0508ED7E0508156F0508097F05089D
:1025CB00AD7E0508056F05086C1A0120717E0508A4
:1025DB00917E0508617E05083D6F05081D7E050887
:1025EB00D57D0508396F0508481A0120AD77050818
:1025FB001D6F0508196F0508116F0508F17805089F
:10260B000D6F0508096F050850170708FFFFFFFF3F
:10261B000100000050C30000010100001F0000007A
:10262B001C0000001F0000001E0000001F00000027
:10263B001E0000001F0000001F0000001E00000015
:10264B001F0000001E0000001F0000000068214C4E
:10265B000125000078130708F4010000FFFF0000BC
:10266B00F0200708901A0120008002021F000000D2
:10267B0053544D202020202050726F6475742020FD
:10268B002020202020202020302E303100800202FC
:10269B001F00000053544D202020202050726F64E7
:1026AB00757420202020202020202020302E303137
:1026BB0047280108432801083B2801082326010865
:1026CB00D93001086D300108C92F010831280108E4
:1026DB002128010811280108012801081B260108DF
:1026EB002A010000000000000401000000070000A8
:1026FB0000000000000000000002000010000000BD
:10270B00000000000000000007000000B001000006
:10271B00020000000900000001000000001B012066
:10272B00000000000000000000000000000000009E
:10273B00000000000000000000000000000000008E
:10274B00000000000000000000000000000000007E
:10275B00000000000000000000000000000000006E
:10276B00000000000000000000000000000000005E
:10277B00000000000000000000000000000000004E
:10278B000100000001000000B0220020000000004A
:04279B00200000001A
:08280000082800080040000850
:10800000026C03463AB11A6CD20608D50022012050
:1080100083F83C207047426480F83C20F3E71A6CF8
:1080200049494A4811401A6841F00201F0B4196404
:108030004168474D21F44031416041685C6821430B
:1080400041605168186921F48071D3F808C0DF6875
:10805000516054689E6A44EA0024AE4254605468F9
:1080600024F040745460506840EA0C0050609068FE
:1080700020F400609060916841EA0701916054D05B
:108080009068DC6A20F07060906091680E439660A2
:10809000906820F040509060916821439160906812
:1080A0009C6920F002009060916841EA440191606F
:1080B00093F82010002941D05468596A44F40064B0
:1080C000481E5460516821F460415160516841EA92
:1080D00040315160D06A0025DC6920F470005E698F
:1080E000611ED0622846D46A44EA0154D46294687E
:1080F00024F400749460946893F8301044EA4124A6
:108100009460946824F480649460916841EA8621C4
:1081100091605D641A6C22F0030242F001021A645D
:10812000002283F83C20F0BC7047916821F0706118
:108130009160916821F040519160B0E7516821F45D
:1081400000615160C6E700BFFDEEFFFF0023014064
:108150000100000F0129F0B42A4C4FF000062A4D0F
:1081600094BF002701272368EE626662A6626763F8
:10817000676B47EA42076763EE63EC6B002A38D10E
:1081800044F49574EC631C6824F001041C601C68C2
:10819000E407FCD4490289085960D8601968EAB933
:1081A00021F04001196019498B421DD018494FF444
:1081B0007410C860196841F01E011960596941F0D6
:1081C00080015961196841F00101196022B90E4A14
:1081D000D36A43F00803D362F0BC704741F040011A
:1081E00019600A498B42E1D14FF0746041F8500C9C
:1081F000E0E744F01A04EC63EC6A44F00804EC6233
:10820000C1E700BF601B0120002C01405864024000
:10821000006402402DE9F04F022389468A462DED85
:10822000108B99B0DFEDCABA14930346169004334D
:10823000159217934FEADA06169DDDF85CC04FEAF7
:10824000CA0305EB46111396F0004FF0000B01EB4B
:10825000061437010390A6EB86020194049706EBFF
:10826000460E04EBC202041D381D06EB86072C44A3
:10827000C6EBC60802972844029D02EB46174FEA58
:10828000C808ED0001EBC60602954FEA0E150595EC
:108290004FEACE050695139D4FEA451E019D95EDCB
:1082A000007AD34492ED005AD7ED004AD945D1ED7A
:1082B000006A50ED013A35EE241AD6ED002A1CED85
:1082C000016A73EE875A54ED017A33EEC73A36EEFF
:1082D000264A77EEA21A36EE666A77EEE27A74EEF6
:1082E000256A71EE812A77EE633A37EEC57A36EE6B
:1082F000A22A77EEE47A76EEE26A0CED012A37EEF6
:10830000247A77EE857AD1ED018AC1ED006A74EEA8
:10831000655A96ED015AB0EE460A94ED004AA7EE72
:108320002B6AD2ED010AE7EEAB3A74EE456AD7ED5F
:10833000012AA7EE6B0A9CED007AD5ED014A34EED6
:10834000054A37EE689A90ED005A36EEE02A76EE4E
:10835000E26A30EEA28A32EE222A76EEA06AF0EECF
:10836000492A75EE640A37EE287A75EE249AE2EE11
:108370006B2A74EEC54AF0EE608AB0EE40AAE6EED3
:10838000AB4AE6EEAB8AA6EEEBAAF0EE496AB0EE97
:10839000629A37EE695AE2EE2B6AB0EE432A74EE27
:1083A00008AAA7EEEB9AA7EEAB2A77EE297A35EE6C
:1083B000617A75EEC89A35EE415A75EEC45A37EEB9
:1083C000AABA77EEEA7A37EE011A8CED00BA36EEE9
:1083D000287AC1ED017A39EE844A76EEC27A1944E0
:1083E00075EE885A9C4435EE215A00ED014A70EE34
:1083F0008A0A70EE244AC5ED005A36EE686A80EDAE
:10840000001A72EEA33A85ED015A33EE093A04EDF3
:10841000017A72EE266A87ED006A1D44C6ED000AF5
:108420001844C2ED004AC4ED007A1C44C7ED016A4D
:108430001F44C6ED013A1E4482ED013A1A443FF64C
:108440002EAF139A072A40F2C681039A0EF1080E46
:10845000169F08F108000832029E059D4FF00008A3
:1084600094463A46083608357244069C0499D34629
:10847000109207EB0C0208340C310F92BA190E92CD
:108480007A190D923A190C923A180B927A180992AD
:1084900007F10C020A9201220892149ADDF824C016
:1084A0009044159A0A9F02EBC8020B9EA8EB880E17
:1084B0000C9D02EBC80192ED00BA0D9C01EBC802C5
:1084C000D1ED00AA0E9802EBC80192ED00AA01EBD3
:1084D000C802D1ED009A02EBC80192ED009A01EBBF
:1084E000C802D1ED008A0F9902EB0E1E92ED008AB0
:1084F000109A0EEBC80ADEED017A1192CDED047AE6
:108500000AEBC802DAED017A02EBC80A1291CDED4E
:10851000057AD2ED017A0AEBC802DDF820E0CDED54
:10852000017ADAED017A02EBC80ACDED067AD2EDD6
:10853000017A0AEBC802CDED027ADAED017ACDEDCF
:10854000077AD2ED017ADDE91121CDED037A01E060
:10855000F304353F17ED017ADE44D2ED007A94ED55
:10856000005AF145D5ED006A37EE274AD0ED004AB2
:1085700077EE677A1CED016A96ED007A91ED001AAC
:1085800076EE055A36EE872A97ED00DA71EE24EA88
:1085900076EE453A74EE252A31EE641A35EE466AD7
:1085A0003EEE825A74EE655A31EE664A72EE854AA4
:1085B00031EE471AB0EE67CA47ED014A34EE077A4A
:1085C000D1ED014A31EE261AD0ED016A72EEC52ACC
:1085D00095ED014AA7EE6BCA74EEE60A96ED010A24
:1085E000E7EE2B7A92ED017A94ED015A74EEA64AE9
:1085F0003DEE473ADCED006A70EEC4CA70EEC00A88
:10860000B0EE43EA7CEE80CA74EE001A70EE840A83
:10861000ACEEEBEA36EEC54A3DEE077AB0EE63DA31
:1086200036EE850AACEEAB3AF0EE4EDAA1EE2BDA7E
:10863000A1EE2B6AE1EE6BDA75EE666AB0EE441AD3
:10864000F0EE4CCA37EE405AA0EEAB1AE0EEEBCAA1
:10865000E0EEAB6A37EE007A74EEA10A35EEE1FA8D
:1086600075EEE45A75EE6EFA37EE600A71EEA55AB1
:10867000DDED061A35EE425A7FEE244A3FEE822A9D
:1086800022EEE1FA61EE80FADDED051A3EEE855A42
:108690003EEE066A73EEAD3A21EE82EA73EE4DDAF3
:1086A0003DEE033A24EEE1DADDED071A34EE2C4A12
:1086B0007CEE266A61EE85CA25EEE1CADDED041A7C
:1086C00077EE81EA77EEC17AE9EEA2FADDED032AD0
:1086D000A9EE80FA9DED030AAAEEA4EADDED014AB7
:1086E000AAEE82DA9DED012AE8EEA5CADDED025A76
:1086F000A8EE85CA9DED025A21EEAD1A62EE832ADC
:108700006EEEE11A27EEC00A64EEA34A26EEC22AF4
:1087100065EE865A24EE455AABEE2E1AEBEE2D1A74
:10872000E8EE272AA8EE030AEAEE264AAAEE232A52
:10873000E9EE045AA9EE065A37EE207A87ED007A60
:108740001F44C2ED00FA82ED01FA1A440CED01EA71
:108750008CED00DA9C44C4ED00CA84ED01CA1C44CF
:1087600081ED001AC1ED011A1944C6ED002A86ED0B
:10877000010A1E44C0ED005A80ED015A1844C5EDAF
:10878000004A85ED012A1D443FF6E4AE1099089A8F
:108790000831013210910F99089208310F910E990A
:1087A00008310E910D9908310D910C9908310C91F9
:1087B0000B9908310B910A9908310A9109990831EE
:1087C0000991139991427FF468AE149B8A46DB00AD
:1087D0009BB214932EE519B0BDEC108BBDE8F08F61
:1087E00011480023024611780632032916D00133BE
:1087F000062BF8D10D49CA6D052A0ED002EB4203B3
:10880000013200EB4303CA65032040F2EB3140F232
:10881000FF32187059809A807047704703EB43030A
:1088200000EB4303F0E700BF981B0120601B012011
:10883000124B30B41D6E6B6A28B943EA0143002025
:10884000AB6230BC7047AC6A013803EB14440BD008
:10885000002303F14002013305EB8202DBB25268D0
:10886000834204EB1244F4D3403044EA014405EB64
:1088700080004460002030BC704700BF601B0120B6
:10888000037870B42BB30246C0F10105531912F8F6
:10889000014FDBB2002CF9D101335B000E4C0322F7
:1088A0000B8084F8643484F86524017879B102235C
:1088B00000265A1CE518023354FA82F285F8641433
:1088C000DBB282F8646410F8011F0029F1D170BC9A
:1088D00070470223E2E700BF601B012030B5EFF3D1
:1088E0001181802383F312880A4AD2F86435D2F8C2
:1088F0006845D2F86405D2F86855CAB282F3118887
:10890000013BA84294BF4FF4006000201B1B184499
:1089100030BD00BF601B0120012380F8513070473B
:10892000014BD3F86C057047601B01200120704794
:10893000024BC3F87025C3F874157047601B012003
:10894000024BC3F87825C3F87C157047601B0120E3
:1089500070477047212870B505D0222829D02028DB
:1089600010D0002070BD0029FBD0072AF9D1184B88
:1089700018791C685A799B79087100200C604A713B
:108980008B7170BD0029ECD0072AEAD11148104B39
:108990000C680E794D79D0F8742589791C601E71A8
:1089A0005D719971002ADCD02146D0F8700590479E
:1089B000D7E70029D5D0022AD3D1064AD2F87C3590
:1089C000002BCED00988D2F878059847C9E700BFB8
:1089D00000000120601B01200020704703460A228E
:1089E00001481A80704700BF080001200346642236
:1089F00001481A80704700BF14000120012901D0EE
:108A000000207047014BD3F8903018470000012038
:108A1000012901D009F07ABB014BD3F88C301847FB
:108A200000000120014BD3F88830184700000120D6
:108A300010B40B780A46044603F00303012B05D05B
:108A4000022B0BD000205DF8044B70478B8843B994
:108A5000204611465DF8044B0CF0A8BB8B88832B95
:108A6000F6D0034B5DF8044BD3F88030184700BFB5
:108A70000000012038B5054B04460D46DB6F9847D2
:108A8000294620460AF06CF8002038BD000001207D
:108A900038B5054B04460D469B6F9847294620463E
:108AA0000AF0DAF8002038BD00000120F0B40024FC
:108AB00052004E1C2746030FB0F1204F4FEA001022
:108AC00003F1300503F1370334BF0D550B5537550E
:108AD0000234A242EFD1F0BC704700BF024808B593
:108AE000FFF7CEFE014808BD64240708C41F01201B
:108AF000024808B5FFF7C4FE014808BD7424070802
:108B0000C41F01200B481A220B4B00681B680A8007
:108B1000C01801D109487047094B0822094910B50E
:108B20001C68FFF7C3FF042207492046FFF7BEFF7A
:108B3000024810BD107AF01F187AF01FB000012013
:108B4000147AF01FB2000120C2000120024808B5CB
:108B5000FFF796FE014808BD80240708C41F0120C6
:108B600008B520B90448FFF78BFE044808BD044847
:108B7000FFF786FE014808BD8C240708C41F0120AA
:108B8000B0240708042301480B807047CC00012063
:108B90000048704708210120004870470821012043
:108BA000034B93F8A405032894BF002001207047CD
:108BB000601B0120034B93F8A405032894BF0020F9
:108BC00001207047601B0120034B93F8A405003877
:108BD00018BF0120704700BF601B012098B1826858
:108BE0000C4B12B107229A70704718780421DA6092
:108BF00003281A611A750CBF80224FF48072997095
:108C0000C3E901227047034B012241F2E4715A701B
:108C10005A547047E07C01200378022B0FD0006982
:108C200008B9012070470E4B1B78032B12D080B27D
:108C30004FF6F773984294BF00200120704708490F
:108C400041F6500243688A58B3EB422F2CBF0120F3
:108C500000207047034B984294BF002001207047CA
:108C6000E07C0120F7FFFF0F30B40378022B13D014
:108C7000104A41F64801436841F63C04555802F554
:108C8000C25100692B400968023812595B0A01FB86
:108C9000003030BC10447047064B41F6300441F6BA
:108CA000340142681859595800EB410030BC00EBC0
:108CB00052207047E07C012038B540F48062074CB8
:108CC0000B4640F2FF55012100F03F00A563A36071
:108CD000E26056F0A9FCA56338BD00BF002C01403E
:108CE0002DE9F84F574B984211D003F568530833DC
:108CF000984269D00023544A1846A2F84C36A2F88C
:108D00005836C2F85036C2F85436BDE8F88F4E4C8B
:108D10004FF0000B02224D4E04F5BF65D9464FF4CB
:108D2000007A4FF48078C4F8F425D6F8D0200127D3
:108D300059465A45BB4403D0D4F8680652F0F8F9B6
:108D40004FF4803394F86C164FF00072D4F8680634
:108D500085F82410B721A5F804A0A5F8108085F89F
:108D60001290A5F806802F762862C5E9023252F0EB
:108D7000DBFBD4F8F425364B93456F7645F8283B5A
:108D8000D3DB84F85A96D4F8F4350120D4F80416CD
:108D9000B4F8FC25D4F8005612FB03F201FB03F3F0
:108DA000B4F80866A4F84C26C4F85436B4F8FE2586
:108DB000284BC4F87016C4F85056A4F85866A4F8A6
:108DC0004E26C4F84836A0E71F4C02224FF0000B95
:108DD0001E4E04F5BF654FF4806A4FF040094FF412
:108DE0000068C4F8F425D6F8D020012759465A4522
:108DF000BB4403D0D4F8680652F09AF94FF00062F1
:108E0000D4F868164FF4003094F86CC6296285F8DF
:108E100024C0A5F804A0A5F81090A5F80680AF74AA
:108E2000C5E90202FFF7DCFC28466F7652F0CAFA69
:108E3000D4F8F425084B934545F8283BD3DB84F858
:108E40005A76A0E71971EF00601B01200000012095
:108E5000A08E0608F88E0608CC8E06082DE9F84389
:108E6000884600294FD04718461E284C802507F118
:108E7000FF39EFF3118185F31288D4F86425C9B264
:108E8000D4F86805D4F86435D4F868C581F311883E
:108E9000634594BF4FF400630023121A1344012B5F
:108EA0001AD1012042F0D2FAEFF3118185F3128832
:108EB000D4F86425C9B2D4F86805D4F86435D4F878
:108EC000687581F31188BB4294BF4FF4006300239F
:108ED000121A1344012BE4D0EFF3118285F31288A8
:108EE000D4F86835D2B216F8011F234483F87416FB
:108EF000D4F868350133C3F30A03C4F8683582F344
:108F000011884E45B5D14046BDE8F883601B01206D
:108F1000F8B5002390F8505080F85030CDB10F498B
:108F200041F2E8028A5C032A15D10D4E00F13C049F
:108F3000B76A29462046FFF791FFB36A2D1A044409
:108F4000DB1B322B01D8002DF3D1B5FA85F0400997
:108F5000F8BD0120FCE71846FAE700BF601B0120BE
:108F6000582C0120002280F85120D1E790F85020A1
:108F7000531C0244DBB280F8503082F83C1090F869
:108F800051200AB1132B00D9C2E77047F8B5144637
:108F900041F2E803094A0D46D35C032B0DD1084E7C
:108FA000B76A002C09DD21462846FFF757FFB36A50
:108FB000241A0544DB1B322BF3D9F8BD601B0120BA
:108FC000582C012010B503200C4659F07FF80328D7
:108FD0000AD0074B93F82C30012B4FF012030CBF33
:108FE00004480548238010BD12230448238010BD87
:108FF000582C0120FC000120E8000120D4000120B1
:109000002DE9F04FDFF82C83BD4D4446DFF838934F
:109010002DED068B89B0CDE9060105920FCD0FC469
:109020000FCD0FC495E8070099F8323084E80700A7
:10903000042B00F21081DFE813F03C010E0109015E
:1090400005004A019FEDAF8A9FEDAF9AAF4AB04B42
:109050000598B049002818BF1346AF4AC8E9062151
:1090600039EE087ADFEDAD7AF5EE006AAC4A28EE0B
:10907000278AAC4EB0EE67AA02F11507C6EE879AB2
:109080000025DFEDA98A0292C8F82430079BAB4285
:1090900000F0D680029B05F1010B13F8014B5FFA3B
:1090A0008BF20293002C00F02081002103E00131BB
:1090B000152900F01A8101EB41004B0017F800C0A0
:1090C000A445F4D1484490F84D10CDE9033200296D
:1090D00000F01381204641F057FC8246006857F0AB
:1090E00049FD9AF8051041F067FD0078002840F02E
:1090F000FC804FEA141C039B04F00F0E049A0CF141
:10910000FF3409EB03010323052C81F88D2081F83E
:109110008C3000F2C980854901EB4400B0F8B00002
:1091200040FA0EFC1CF0010C00F0C0804FF0010C66
:1091300003920CFA0EFC0CF1FF3C0CEA00005CF010
:10914000B3F87A49039A032301EB040C784C02210B
:109150009CF8BCC0604404EBC00070618371C271B4
:109160009AF8082043F036FC059B002B78D0B9F81C
:10917000303099F8321007EE903AD9F8B833042914
:10918000F8EEE77AFCEEE77A17EE900AB3FBF0F21E
:1091900002F57F4202F1FF024FEA1242B3FBF2F204
:1091A000B2FBF0F083B270D007EE902AF8EE676A57
:1091B00066EE887A28EEE77A99F8330006990190EE
:1091C0003046A9EE267A00915146C6ED027A86ED28
:1091D000037A34F0B5FB002D62DD7368D8F83820CF
:1091E00093425FD0012D5BD0D8F85020934259D0E4
:1091F000022D55D0D8F86820934253D0032D4FD07C
:10920000D8F8802093424DD0042D49D0D8F898202A
:10921000934247D0052D43D0D8F8B020934241D097
:10922000062D3DD0D8F8C820D31A18BF01235D46BB
:10923000012233741836082D06F8072C7FF426AF68
:109240003C4809B0BDEC068BBDE8F08F9FED3A8A33
:10925000B0EE489AFAE69FED398AB0EE489AF5E604
:10926000FAFE697AFCEEE77AD9F8B8134FF6FF7385
:1092700017EE902A1846B1FBF2F21A44120CB1FB19
:10928000F2F299F8321004298ED107EE900A07EE17
:10929000102AF8EE677AF8EE476A67EE8A7A89E76D
:1092A0000123C4E70023C2E770615DE7C6F814C07C
:1092B0005AE70023174A01219FED188A0693164B9F
:1092C000B0EE489A0591C8E90632104BC8E6002373
:1092D000104A01219FED1A8A06930F4BB0EE489A6F
:1092E0000591C8E90632094BBAE6164A0020074B39
:1092F000C8F81C20C8F82430A3E70B68FFDE00BFC5
:10930000248F0608ACC5A737ACC5A7363987040833
:1093100071BC0308C9C10308458704086F12833A6A
:109320008F2C01204800002000007A44A08E0608FF
:10933000102D012014000020282930386F12033925
:10934000000000005DBF0308582C012010B50D4C33
:10935000002394F8F125C4F8A03512B10A4AC2F8E6
:10936000BC3356F06BFB20B10423022084F8A435F3
:1093700010BD054A0923926A84F8A435C4F89425DF
:1093800010BD00BF601B0120582C012070B50F4D8F
:1093900004460E4695F8A435042B0BD0082B07D1B4
:1093A000D5F89C3583420ED0FFF7D0FF022801D0BC
:1093B000012070BD08230220C5F8A065C5F89C45B2
:1093C00085F8A43570BD022070BD00BF601B012070
:1093D00070B54379234C002B14BF0123002384F87C
:1093E000D03503D1002384F8A43570BD1E4D002173
:1093F000032095F9C32343F0B5F90028F2D046685D
:10940000304643F09FF984F8F0050028EAD095F83B
:10941000C1333046003B18BF012384F8F13558F0C2
:1094200009F909F0E5FF38B994F8983584F8A405EE
:10943000013384F8983570BD56F0D8FB40B194F8EC
:1094400098350022013384F8A42584F8983570BD3E
:10945000AA6A012384F89805C4F8942584F8A435F1
:1094600070BD00BF601B0120582C012010B556F0C4
:10947000BDFB58B10C4C94F898350133DBB2072B87
:1094800084F8983503D9002384F8A43510BD09F079
:10949000AFFF0028F7D0054B01229B6A84F8A42572
:1094A000C4F8943510BD00BF601B0120582C01206A
:1094B0002DE9F84F904C94F8D055002D00F0028122
:1094C00094F8A42502278D4E531E082B3ED8DFE8C2
:1094D00003F03436A73D6649153D050056F0AEFA57
:1094E000002840F00181D4F89435B26AFA339342EF
:1094F00029D2FFF7BBFF94F8A425E5E756F09EFAC2
:109500000028F0D0D4F8A0350022012B84F898254B
:1095100040F2EE80D4F89C15013B94F8F1550131EE
:10952000C4F8A035C4F89C1515B1744BC3F8BC231E
:109530000823054684F8A43511E084F8A47556F094
:109540007DFA00284DD194F8A425531EDBB2022BDE
:109550003CD9082A18BF042A0CBF0125002528463B
:10956000BDE8F88F236B002B37D1644B0722D4F86A
:109570008C559B6A84F8A425C4F89435002DEED050
:10958000D4F890350120D4F88025D4F88415A84764
:10959000D9E7D4F89435B26A643393421DD2D4F833
:1095A0002C80B8F1000FF4D156F048FA0028A2D070
:1095B0000423D4F88C5584F8988584F8A435002DBC
:1095C00000F090804046D4F89035DCE74B4BD4F85F
:1095D00094259B6A9B1AC82B79D800252846BDE89C
:1095E000F88F55F0BFFE0028ADD196F8C533002B9B
:1095F000A3F10203B3FA83F314BF022201225B0931
:1096000084F8992584F89A3555F0ACFE00287FF44B
:1096100070AFD6F810240323C4F8A82584F8A43525
:1096200055F0A0FE00288ED1344A4FF0040EC4F845
:10963000A005032392F8F4B3B2F8F613D2F8F803B6
:1096400084F8AEB5D2F8F8734FEA106CD2F8F8632C
:10965000A4F8AC153F0CD2F8F8A3360A92F8FC93A4
:1096600092F8FD5392F8FD03D2F8008425FA0EF526
:10967000B2F806B400F00F00B2F80614B2F80624EF
:10968000C1F30B1184F8AFC502F00F0C84F8B0756C
:1096900041EA1B21724684F8B16501F00F0184F89C
:1096A000B2A584F8B39501F5FA6184F8B85584F849
:1096B000B905C4F8B485A4F8BA1584F8BCC584F813
:1096C000A4E543E7284684F8A455BDE8F88FFFF7E2
:1096D000CDFE94F8A455082D18BF042D0CBF01250C
:1096E00000253CE705463AE7042384F8A43536E72D
:1096F000FAD1FFF72BFE26E7601B0120582C012032
:10970000154BDB68C3F3022310B4C3F107041A1D21
:10971000042C28BF0424062A4FF0FF328CBF033BE1
:109720000023A240002821EA020101FA03F108DB2C
:1097300009010A4BC9B2034483F800135DF8044BD6
:10974000704700F00F000901054BC9B203441976B8
:109750005DF8044B704700BF00ED00E000E100E061
:10976000FCEC00E030B5284C0022284841F287315B
:10977000D4F8B83383B0264DA0FB030304F584600E
:10978000C4F82C14DB0CC4F83024C4F82824013BA2
:10979000C4F82054C4F824340DF0B2FE1D4B062149
:1097A00037201A6C42F020021A641B6C03F020036D
:1097B0000193019BFFF7A4FFD4F820344FF400007D
:1097C0001549164A4860D96841F00101D960996885
:1097D0000A40062A06D0B2F5803F03D01A6842F04C
:1097E00001021A600E4B41F2041200200D499A58F2
:1097F00003F27464C3F87C05C2F81002C3F8740560
:10980000C2E9811403B030BD582C012083DE1B4314
:10981000001400400038024000E100E007000100B1
:10982000601B0120B830012038B50F4B0F4AD3F828
:10983000B833A2FB03239B09013BB3F1807F10D215
:109840000B4A0024F0200B490725536081F82300C0
:10985000214694604FF0FF301560FFF751FF20461E
:1098600038BD012038BD00BF582C0120D34D6210F7
:1098700010E000E000ED00E02DE9F84FB34C0546A4
:1098800094F8601CD4F8680CC1F3400143F0E4FA8A
:1098900094F8601CD4F8640CC94301F0010143F052
:1098A000DBFA002D00F0C3806E1EA94F4FF01008A8
:1098B000A84D5FFA86FBD4F8680C43F0B1FAD4F8EF
:1098C000640C43F0ADFAB4F8703C002B40F03581E5
:1098D00094F8721CD4F8740C43F0BEFA4FF0FA09F5
:1098E0004FF47A704FF0010C7B68C3F30803002B30
:1098F00040F0FB80EFF31183002B40F0F680A26A6A
:10990000A968A36A9A42FAD1D4F8983C9942F6D849
:10991000D4F8946C00FB06F35B1AB3FBF6F300FB80
:1099200002327B68C3F30803002B40F09F80EFF303
:109930001183002B40F09A80A36AD5F808A0A16A91
:109940008B42F9D1D4F8981C8A45F5D8D4F8946C98
:1099500000FB06F1A1EB0A01B1FBF6F100FB0313DA
:109960009B1AB3F57A7FDCD3B9F10109BCD1D4F8E5
:10997000680C43F055FAD4F8640C43F051FAB4F88B
:10998000703C002B40F0CD8094F8721CD4F8740C1D
:1099900081F0010143F060FA4FF0FA0C4FF47A7055
:1099A0004FF0010E7B68C3F30803002B7ED1EFF369
:1099B0001183002B7AD1A26AA968A36A9A42FAD1CC
:1099C000D4F8983C9942F6D8D4F8949C00FB09F35B
:1099D0005B1AB3FBF9F300FB02327B68C3F30803A5
:1099E0003BBBEFF3118323BBA36AD5F808A0A16AA0
:1099F0008B42F9D1D4F8981C8A45F5D8D4F8949CB8
:109A000000FB09F1A1EB0A01B1FBF9F100FB031323
:109A10009B1AB3F57A7FE0D3BCF1010CC2D10BF1F4
:109A2000FF365FFA86FBBBF1FF0F7FF444AFBDE862
:109A3000F88FEFF3118988F31288AE682B68DB0387
:109A400002D5C4F890ECAE68A36A5FFA89F9D4F83D
:109A5000901C89F31188D4F8949C0B4400FB09F105
:109A6000891BB1FBF9F100FB0313D1E7EFF3118E72
:109A700088F31288D5F808A02B68D90303D5C4F859
:109A800090CCD5F808A0A36A5FFA8EFED4F8901C9B
:109A90008EF31188D4F8946C0B4400FB06F1A1EB13
:109AA0000A01B1FBF6F100FB031359E7EFF3118153
:109AB00088F31288D5F808902B68DA0303D5C4F828
:109AC00090ECD5F80890A36AC9B2D4F8902C81F331
:109AD0001188D4F8941C1A4400FB01F3A3EB09038A
:109AE000B3FBF1F300FB023277E7EFF3118188F368
:109AF0001288AE682B68DB0302D5C4F890CCAE6840
:109B0000A36AC9B2D4F8902C81F31188D4F8941CBC
:109B10001A4400FB01F39B1BB3FBF1F300FB023281
:109B2000FFE6D4F88C3C002B3FF436AFD4F8783CF9
:109B3000C3F8009084F8899C2EE7D4F88C3C002B65
:109B40003FF4CCAE41F048FDC8E600BF582C0120E0
:109B500000ED00E010E000E02DE9F84FB04C4FF0D0
:109B6000050BB04F4FF0100894F8601CD4F8680C47
:109B7000C1F34001AC4D43F06FF994F8601CD4F888
:109B8000640CC94301F0010143F066F9D4F8680C94
:109B900043F046F9D4F8640C43F042F9B4F8703C51
:109BA000002B40F0358194F8721CD4F8740C43F00B
:109BB00053F932264FF47A704FF0010C7B68C3F3EF
:109BC0000803002B40F0FA80EFF31183002B40F0E4
:109BD000F580A26AA968A36A9A42FAD1D4F8983C9F
:109BE0009942F6D8D4F894EC00FB0EF35B1AB3FB61
:109BF000FEF300FB02327B68C3F30803002B40F046
:109C00009E80EFF31183002B40F09980A36AD5F872
:109C100008A0A16A8B42F9D1D4F8981C8A45F5D8DE
:109C2000D4F894EC00FB0EF1A1EB0A01B1FBFEF1BC
:109C300000FB03139B1AB3F57A7FDCD3013EBDD141
:109C4000D4F8680C43F0ECF8D4F8640C43F0E8F86E
:109C5000B4F8703C002B40F0D08094F8721CD4F81B
:109C6000740C81F0010143F0F7F84FF0320C4FF41F
:109C70007A7001267B68C3F30803002B7FD1EFF3D2
:109C80001183002B7BD1A26AA968A36A9A42FAD1F8
:109C9000D4F8983C9942F6D8D4F8949C00FB09F388
:109CA0005B1AB3FBF9F300FB02327B68C3F30803D2
:109CB0002BBBEFF3118313BBA36AD5F808A0A16AED
:109CC0008B42F9D1D4F8981C8A45F5D8D4F8949CE5
:109CD00000FB09F1A1EB0A01B1FBF9F100FB031351
:109CE0009B1AB3F57A7FE0D3BCF1010CC2D10BF122
:109CF000FF3616F0FF0B7FF449AFBDE8F88FEFF3A6
:109D0000118988F31288D5F808A02B68DB0303D5E6
:109D1000C4F8906CD5F808A0A36A5FFA89F9D4F862
:109D2000901C89F31188D4F8949C0B4400FB09F132
:109D3000A1EB0A01B1FBF9F100FB0313D0E7EFF34C
:109D4000118E88F31288D5F808A02B68D90303D5A3
:109D5000C4F890CCD5F808A0A36A5FFA8EFED4F8B8
:109D6000901C8EF31188D4F894EC0B4400FB0EF198
:109D7000A1EB0A01B1FBFEF100FB03135AE7EFF37D
:109D8000118188F31288D5F808902B68DA0303D57F
:109D9000C4F8906CD5F80890A36AC9B2D4F8902C96
:109DA00081F31188D4F8941C1A4400FB01F3A3EB4F
:109DB0000903B3FBF1F300FB023276E7EFF3118105
:109DC00088F31288D5F808E02B68DB0303D5C4F8C4
:109DD00090CCD5F808E0A36AC9B2D4F8902C81F3EE
:109DE0001188D4F8941C1A4400FB01F3A3EB0E0372
:109DF000B3FBF1F300FB0232FDE6D4F88C3C002B00
:109E00003FF433AFD4F8783C1E6084F8896C2CE7BB
:109E1000D4F88C3C002B3FF4CCAE41F0DDFBC8E61F
:109E2000582C012000ED00E010E000E02DE9F041A9
:109E3000D0F800E00C46DFF8588084B0DEF804501B
:109E40001746DFF850C0194605EA0805DDF82880F6
:109E5000064603932C43424644EA0C0CCEF804C059
:109E60000AF0F2FA78B931680246039B30468F62F5
:109E70004021CDF800800AF017FB003818BF012000
:109E800004B0BDE8F081012004B0BDE8F08100BF5E
:109E9000009800FC00200180F8B5134F04460D46E1
:109EA0000AE09B69DB0602D50AF08EFAD0B9D7F832
:109EB0009C3C5B1B0A2B08D823682A460A212046B3
:109EC0009E69B606EDD50020F8BD636C2021002206
:109ED00001200B4384F84020636484F8411084F827
:109EE0004220F8BD0120F8BD582C012030B5037880
:109EF00083B004461546012B1DD0022B18D1C36830
:109F000041F080011BB19A88186812048261606870
:109F100058F066FB01232A460021606858F066F974
:109F2000E3688BB11A6801209B88936103B030BD50
:109F3000002003B030BD00920A46417990F9040038
:109F400059F04EFA03B030BD0120F2E74309012277
:109F500000F01F0084B0013B02FA00F0032B0BD885
:109F6000DFE803F015021E0C124B5A6C02435A64D0
:109F70005A6C10400090009B04B070470D4B1A6B58
:109F800002431A631A6B10400390039BF4E7094BDA
:109F90005A6B02435A635A6B10400290029BEBE7E4
:109FA000044B1A6C02431A641A6C10400190019B16
:109FB000E2E700BF0038024018B10022012142F060
:109FC00009BD704718B10022202142F003BD70473F
:109FD00058B183884FF00042B3FA83F332FA03F3A7
:109FE00003D002490A6813430B607047003C0140EC
:109FF000002800F08F80B0F804C0BCFA8CF3202B4E
:10A00000C3F11F0200F086806F4B2DE9F04F9D18C1
:10A01000DFF8E48185B0036808EB820095F8C4207E
:10A020000024DFF8D8E10192C0F8A01C674A02E0E2
:10A030000134102C65D04FF0010909FA04F10CEA43
:10A04000010531EA0C01F3D14FF0030A04FA09F7D4
:10A0500018684FF00F0B0AFA07F704EA0A0124F018
:10A06000030620EA0700890006F1804618600BFA13
:10A0700001F0D3F80CB006F59C362BEA0707DF6039
:10A08000DEF8447047F48047CEF84470DEF8447040
:10A0900007F480470397039FB76827EA00004C4FF7
:10A0A000BB421AD007F58067BB4234D0494FBB4250
:10A0B00035D0494FBB426BD0484FBB4271D0484F5F
:10A0C000BB4269D0474FBB4278D0474FBB420CBF21
:10A0D0000727082707FA01F10843B0600134116827
:10A0E000102C41EA05011160516821EA0501516017
:10A0F000916841EA05019160D16821EA0505D560C2
:10A1000099D1019B984498F8E03CF02B0CD805B00D
:10A11000BDE8F08F704709FA01F10843DDE7022737
:10A1200007FA01F10843D8E7F021304B264888F8B8
:10A13000E01CD968019AC1F302210244C1F1070071
:10A140000B1D92F8D440042892F9D42028BF042093
:10A15000062B4FF0FF338CBF033900218340002AC8
:10A160006FEA030303F0030303FA01F31EDB204845
:10A1700001211B0104F01F0485185209DBB201FA0A
:10A1800004F485F8003340F8224005B0BDE8F08FB4
:10A190000AFA01F10843A0E7052707FA01F108438D
:10A1A0009BE7042707FA01F1084396E704F00F0440
:10A1B0001B01104ADBB222441376A8E7062707FAF0
:10A1C00001F1084389E700BFA08E0608003C01406A
:10A1D0000000024000080240000C02400010024053
:10A1E0000014024000180240001C024000ED00E094
:10A1F00000E100E0FCEC00E0582C012000380240B7
:10A2000010B4B8B10D4CD4F8E83C102B05D10521A1
:10A2100000205DF8044B40F0B5BE03EB430222443E
:10A2200082F8ED1C012182F8EC0C0B4482F8EE1C44
:10A23000C4F8E83C5DF8044B704700BF582C01207F
:10A240002DE9F04FBC4C002387B004F61C5894F85D
:10A25000302DC4F81C3DC8E90133C8E903331AB1F5
:10A2600094F8313D84F81C3D94F8323D1BB194F8CC
:10A27000333D84F82B3D94F8363D1BB194F8373DBF
:10A2800084F8263D94F8343D1BB194F8353D84F8AC
:10A29000213D94F8383D013B4FFA83FADBB2BAF125
:10A2A000FF3F029300F02581B022A449A44D002372
:10A2B00002FB0A112E4605F12800DC311F469B46A1
:10A2C00001935EF043FC039535785146284644F0EF
:10A2D00017FB8146002840F00F8101370536042F17
:10A2E000F2D194F8480D039DFFF730FE4FF4403251
:10A2F000944E00230121C4F8502D3046D4F8442D4B
:10A30000C4F868BDC4F8641DC4F85C1D84F87C1DE5
:10A31000C4F8543DC4F8743DC4F8783DC4F8583DC1
:10A3200084F86C3DC4F8703DC4F8603DC4F84C2D11
:10A33000FDF766FEBAF1000F40F01881019B83F033
:10A34000010919F0FF0F40F01181A6F1080059F042
:10A3500029FE012308F11408EA78002A40F0408120
:10A3600005354545F8D104EB0A030299022093F91B
:10A37000402D42F0F7F90546002800F0BA80D0F8E9
:10A380000480404642F0DEF96F4B421E03EB42135D
:10A3900093F82871002F40F0AC800622A3F8282102
:10A3A000002800F0A6804046DFF8B88142F0CAF9E4
:10A3B00057F030F9BBF1010FA9684FF400638CBF6F
:10A3C0004FF48062002268684FF40055C4F8981D6D
:10A3D0004FF48071C4F8A42D4FF40032C4F8A83DA6
:10A3E0000323C4F8940D4046C4F8BC3DC4F89C7DDA
:10A3F000C4F8A07DC4F8B87DC4F8C07DC4F8C47D9D
:10A40000C4F8AC5DC4F8B01DC4F8B42D0CF0C6FEA1
:10A4100094F8883DC4F8848D012BC4F8CC6D059761
:10A4200067D00123D4F84C5D84F8883DAB68DE0723
:10A4300013D4D4F8B8334549AA68B3FBF1F342F01A
:10A44000010203EB4303AA600593059B2BB1059B17
:10A45000013B0593059B002BF9D1AB68D80748D584
:10A46000D4F88C2D3A4B134043F48073C4F88C3DE0
:10A470006B68590507D5D4F88C3D23F4405343F459
:10A480008053C4F88C3DD4F88C3D13F4805300F015
:10A490005681D4F8903D23F00603C4F8903D2D4832
:10A4A00000232D496FF02202C4F8D40D2B4884F804
:10A4B000883D5B46C4F8D01D05F14C01C4F8E00DA1
:10A4C0002A606E68264A46F0806626486E60AE684E
:10A4D00046F48076AE600CF0D9FD234B5A68D20664
:10A4E00040F01681D4F84C3D9A6812F0405F00F0BD
:10A4F000218107B0BDE8F08F284642F041FBFB1DEB
:10A5000003210022DBB2CDF8049008B18371C2713F
:10A5100042F01CFB307844F025FA0BF1010386F879
:10A5200002B05FFA83FB4FF00703707033714FF096
:10A530000103F370D1E600BF582C0120A08E06085D
:10A5400074390120A43901200000012040420F008D
:10A55000FEF8FFFFA1250108A525010891250108A6
:10A5600008010020EC39012000230140B022002125
:10A570007A4848275EF05CFBB022002177485EF005
:10A5800057FB774B384684F8F87DC4F8F43DFFF765
:10A59000DDFC4FF4403000230121D4F8F42DC4F841
:10A5A000000E7048C4F8141EC4F80C1E84F82C1E4B
:10A5B000C4F8043EC4F8243EC4F8283EC4F8083E5B
:10A5C000C4F8183E84F81C3EC4F8203EC4F8103E7F
:10A5D000C4F8FC2DFDF714FD604859F0E3FCB8E623
:10A5E00094F8880D00215A1C2F7901280491D2B2C9
:10A5F00069783DD04FF00100092984F8880D4ED9C3
:10A600004FF0030E6FF01D00D4F84CCD4FF007094A
:10A610001EFB0100DCF80CE009FA00F907FA00F073
:10A620002EEA0907CCF80C70DCF80C703843CCF833
:10A630000C00062B4FF005001CD86FF0040710FB30
:10A640000373D4F84C7D1F2000FA03FC786B01FAE9
:10A6500003F320EA0C007863786B03437B63D4F840
:10A660004C3D3F48834230D04FF0000384F8883D92
:10A67000134675E60C2B32D86FF0220710FB0373DC
:10A68000D4F84C0D1F2707FA03FC076B01FA03F3FC
:10A6900027EA0C070763076B3B430363DFE7D4F844
:10A6A0004C0D01EB41094FF0070ED0F810C007FA2E
:10A6B00009F70EFA09FE2CEA0E0CC0F810C0D0F80B
:10A6C00010C047EA0C070761B3E712291AD0112915
:10A6D000CAD125494B6843F400034B60C4E76FF0CF
:10A6E000400710FB0373D4F84C0D1F2707FA03FC37
:10A6F000C76A01FA03F327EA0C07C762C76A3B433C
:10A70000C362ACE718494B6843F480034B60ABE786
:10A71000D4F84C2D12498A4214D05B68DB063FF511
:10A72000E8AE124B9A427FF4E4AE9A6812F0405FB2
:10A730007FF4DFAE9A6842F080429A60D9E6C4F8AE
:10A74000903DACE6936813F0405F03D1936843F00B
:10A7500080439360044B5B68CBE600BF4C3A01201A
:10A7600000200140543A0120002301400022014012
:10A770002DE9F041D0F800E00C46DFF8588084B0B5
:10A78000DEF804501746DFF850C0194605EA080500
:10A79000DDF82880064603932C43424644EA0C0C1D
:10A7A000CEF804C009F050FE78B931680246039B28
:10A7B00030468F628021CDF8008009F075FE0038A8
:10A7C00018BF012004B0BDE8F081012004B0BDE84D
:10A7D000F08100BF009800FC002001810A4610B102
:10A7E000022142F0F7B87047034690F83C00012878
:10A7F00000F03E810220F0B4012483F83D0083F88C
:10A800003C40142A45D8DFE812F04D0044004400D3
:10A8100044007B00440044004400DA00440044004B
:10A820004400AA00440044004400060144004400DF
:10A83000440015001A688E68156A0F6825F48015A3
:10A84000AB4C1562106A556820F40010D2F854C061
:10A8500040EA0650A74E0CEA0404B24244EA072438
:10A8600000F0088106F58066B24200F003814E6870
:10A8700055605465D6651062506D0C6940F40060F7
:10A880005065506D20F480605065516D41EA04219F
:10A89000516500220121104683F83D1083F83C20C9
:10A8A000F0BC70471A68D1F808C0156A0F6825F027
:10A8B0000105914C1562106A5668956920F00200F6
:10A8C0002C408C4D40EA0C00AA4244EA070400F0F8
:10A8D000DD8005F58065AA4200F0D8804D6856609D
:10A8E00094615563106290690C6940F008009061B2
:10A8F000906920F004009061916921439161C8E75B
:10A900001A68D1F808C0156A0F6825F010057B4C4D
:10A910001562106A5668956920F020002C40754D2C
:10A9200040EA0C10AA4244EA072400F0C38005F56F
:10A930008065AA4200F0BE804D68566094619563C0
:10A94000106290690C6940F400609061906920F495
:10A9500080609061916941EA0421916199E71A68E8
:10A960008E68156A0F6825F48055644C1562106A6C
:10A97000556820F40050D2F81CC040EA06305D4E05
:10A980000CEA0404B24244EA072400F08D8006F584
:10A990008066B24200F088804E685560D4611664CB
:10A9A0001062D0690C6940F40060D061D06920F475
:10A9B0008060D061D16941EA0421D16169E71A68F8
:10A9C000D1F808C0156A0F6825F480754A4C1562E5
:10A9D000106A5668D56920F400702C40454D40EA55
:10A9E0000C20AA4244EA070473D005F58065AA4208
:10A9F0006FD04D685660D461D5631062D0690C6920
:10AA000040F00800D061D06920F00400D061D16925
:10AA10002143D1613DE71A688E68156A0F6825F4F5
:10AA20008035374C1562106A556820F40030D2F832
:10AA300054C040EA06402F4E0CEA0404B24244EAF5
:10AA400007041DD006F58066B24219D04E685560E5
:10AA5000546596651062506D0C6940F008005065B1
:10AA6000506D20F004005065516D2143516510E791
:10AA70000220704725F480254E6945EA8625F6E6D2
:10AA800025F480354E6945EA0625DFE726F4407C4B
:10AA900020F008008E69CF684D693843354320F0B7
:10AAA000040045EA0C0619E725F480454E6945EA9D
:10AAB000861571E726F4406C20F080008E69CF681F
:10AAC0004D6940EA0710354320F040004CEA850606
:10AAD00032E726F4405C20F400608E69CF684D694F
:10AAE00040EA0720354320F480604CEA051680E7F1
:10AAF000FF8FFFFE000001408CFFFEFFFF8CFFFE7A
:10AB00008FFFFEFF064B93F8A42E002AFBD141F6DF
:10AB1000082204499B5801F10D001B68184700BF2B
:10AB2000582C0120FF3A012003680B4A23F0400310
:10AB3000904203600DD0094B98420AD0102203685E
:10AB400023F0380313430360036843F040030360BA
:10AB500070470822F3E700BF00380040003C004087
:10AB60002DE9F0416B4C00234FF4F0722021064692
:10AB700004F6181084F814395EF05AF804F6F82038
:10AB80004FF4F07220215EF053F894F8D90C10B114
:10AB900094F8DA2C1AB900252846BDE8F08141F076
:10ABA000EFFF0746C4F8E80C42F02CF905460028F0
:10ABB000F1D00FB12323FB800D21384641F0C6FFB1
:10ABC000D4F8E80C42F042F994F8DA0C524F01380C
:10ABD00040B243F04BFB02232021C4F8E00C84F880
:10ABE000DC3C54F02BF9B7F810134C4843F07CFAD6
:10ABF000D4F8E80C42F024F9FF218C2057F0E0FD56
:10AC00008046D4F8E80C42F021F9D4F8E00CFFF7C4
:10AC10008BFFB8F11B0F05D0D4F8E80C0025FFF727
:10AC2000D1F9B9E70122D4F8E83C84F814290BB132
:10AC30002322DA80B7F81013384843F055FAD4F8D5
:10AC4000E80C42F0FDF840210A2057F0B9FDFF2141
:10AC50008A2057F0B5FD0346D4F8E80CC3F38013FF
:10AC600084F8EC3C42F0F2F8D4F8E00CFFF75CFF1B
:10AC700094F8D83C012B43D0022B39D0E3B394F89D
:10AC8000ED3C182B09D194F8EC2CB7F81033A4F84C
:10AC9000F06CA4F8F22CA4F8F43CB7F810131F4899
:10ACA00043F022FAB7F810131C4843F01DFAD4F809
:10ACB000E80C42F0C5F80221002057F081FDD4F8DD
:10ACC000E80C42F0C3F8D4F8E00CFFF72DFF94F83D
:10ACD000FD2C94F8FE3CC2F1200294F8FC1CC3F158
:10ACE000100384F8FF2C84F8003D84F8F81C53E727
:10ACF0001023A7F81033C2E72023A7F81033BEE7CC
:10AD0000002EF5D094F8EC3C002B14BF1023202328
:10AD1000EFE700BF503D0120000001202C4A012038
:10AD2000F8B5474E96F8014D04EB4403650006EB79
:10AD3000C30393F8043D032B77D8DFE803F0492AD7
:10AD40001F02254406EBC505D5F8083D002B6ED142
:10AD500096F8642D944268D0013404F003018A42CD
:10AD600086F8011D61D001EB41040222184606EB72
:10AD7000C404C4F8083D84F8042DF8BD2B1906EB73
:10AD8000C303D3F8082D72B1013A0020C3F8082D8F
:10AD9000F8BD2B1906EBC303D3F8082D002AF3D115
:10ADA000022283F8042D254406EBC50595F8103DD5
:10ADB000013BDBB285F8103DF3B1224B0120D3F803
:10ADC000142302F2E733B3FBF2F3C5F8083DF8BDF4
:10ADD00043F08CFC48B31B4A42F20F732C44012110
:10ADE000D2F8142306EBC404134484F8041DB3FB07
:10ADF000F2F3C4F8083DF8BD124B601C0327D5F8E8
:10AE00000C1DD3F81423384096F8644D531E85F872
:10AE1000047D001B0B4418BF01209A42B3FBF2F1E2
:10AE200088BF0020C5F8081D30B90120F8BD013BDE
:10AE30000020C5F8083DF8BD0139C5F8081DF8BD6A
:10AE4000503D01200000012003689B0AA3F58013F8
:10AE5000522B00D970470E4A134470B593F8EC4258
:10AE600084B00D2C12D800294FF0000309494FF08F
:10AE7000010514BF1E460226427901EB8410694683
:10AE8000CDE90065CDE902330CF03AFA04B070BDAB
:10AE9000A08E0608B84A012033492DE9F84F91F8F1
:10AEA000C5131C46012507460229DFF8C4A0104639
:10AEB00019464FF00002DFF8BC9018BF7F02CAF8B5
:10AEC0002C50FDF747F9294A630240F2FF5BC9F8AD
:10AED00024204FF40075C9F828304FF48A62D9F85D
:10AEE0002C30012110205E4643F09303C9F82C302A
:10AEF000C9F838B0C9F808504D46C9F80C2054F0CC
:10AF000093FB012CC9F838B04FF00A048CBF4FF006
:10AF100052084FF051084FF0000939464046FDF7FE
:10AF2000CBFE013C034640F2774201213720E4B2D8
:10AF300023B91846CAF82830BDE8F88FAE63C5F8C3
:10AF40000890EA6054F070FBAE6303460028F0D02E
:10AF5000002CE2D10028ECD000221846CAF82C20A0
:10AF6000CAF82830BDE8F88F582C012000E1F5051B
:10AF7000601B0120002C01402DE9F843DFF87480AC
:10AF800004460F46914698F8A4551E46042D08D055
:10AF9000082D02D00020BDE8F883FEF7D7F902287B
:10AFA000F8D101233A4620460021FFF775FF68B12A
:10AFB000FEF75CFAD8F88C45002CEBD00022D8F8CC
:10AFC0009035D8F884151046A047E3E7084A0523D2
:10AFD0000120C8F88075926AC8F88445C8F88C9535
:10AFE000C8F89065C8F8942588F8A435BDE8F883BA
:10AFF000582C0120601B01202B492DE9F04F91F8BE
:10B00000C5130124DFF8ACB00746022983B0CBF8A2
:10B0100030409A4618BF4702012B4FF00A04234DD7
:10B0200040F2FF568CBF4FF059084FF058084FF0D0
:10B030000009009239464046FDF73EFE013C0346BA
:10B0400040F2774201213720E4B2BBB90098514663
:10B0500001220193164CFDF77DF814494FEA4A226C
:10B060000020019B4C628A62CA6A42F09102CA6265
:10B07000CBF82800184603B0BDE8F08FAE63C5F8E2
:10B080000890EA6054F0D0FAAE6303460028DDD0A1
:10B09000002CCFD10028D9D000221846CBF8302080
:10B0A00003B0BDE8F08F00BF582C0120002C0140F8
:10B0B00000E1F505601B01202DE9F84F05460E461D
:10B0C00090461F46394C94F8A40504280CD0082853
:10B0D00007D1D4F89C35AB4206D0FEF737F90228E9
:10B0E000F1D00120BDE8F88FDFF8C8A0C4F8806572
:10B0F000DAF8BC93C4F88455C9F34F234FEA5922B8
:10B100000F2B2BD8D4F8A0B5BBF1000F26D094F8A4
:10B11000F11519B3B9F5005F41D025484FF400721D
:10B12000314648445DF012FD09F50072C2F34F2329
:10B13000CAF8BC23520A102B31D0BBF1010F2ED01C
:10B14000D4F89C250BF1FF33042102200132C4F80E
:10B15000A03584F8A415C4F89C25C3E701234FF05B
:10B1600001092846062532460021C4F88C85C4F81A
:10B17000907584F8889584F8A455FFF73DFF002862
:10B18000B0D0FEF773F9D4F88C556DB14846D4F8B9
:10B190009035D4F884150022A8470320A2E792B284
:10B1A000034E013AAD1ADAE703209BE7601B01204A
:10B1B000E05C0120582C012070B5194C82B00E467D
:10B1C000154694F83030022B0FD0012B0AD11346CC
:10B1D0000091024694F8351094F9340058F000F9C3
:10B1E00002B070BD002002B070BDE36B1BB19A8845
:10B1F000196812048A610146606B57F0F1F92B4619
:10B2000032460021606B56F0F1FFE36B2BB11A68F8
:10B2100001209B88936102B070BD0120E0E700BF70
:10B22000484E01200378012B01D00020704790F98F
:10B230000420084902EB420201EB421292F8C910C5
:10B24000202901D018467047D2F888309869C0F399
:10B25000C0307047484E01202DE9F04F037883B08D
:10B260000446022B00F08C80012B04D000252846D8
:10B2700003B0BDE8F08F90F90400554E042886F81D
:10B28000F431D4BF00250125B0F1FF3F08BF45F0E0
:10B290000105002DEAD100EB40024FEA400C06EB1D
:10B2A0004212D2F88870002FE0D092F8C9E0BEF1C7
:10B2B000200FDBD1BF6917F40047D7D192F8C8E05F
:10B2C000BEF1010FD2D04FF04008DFF818E1DFF8EF
:10B2D00018B14FF0210A94F80590DBF89C4C82F8E5
:10B2E000C9A082F8CA8006F5FA78C2F8CC70A2F834
:10B2F000B230C2F8B4E0B2F8B2E082F8C8301FFA57
:10B300008EF3DFF8E8E0C2F8AC80FF2BC2F8BCE0B7
:10B3100059D8B2F8B2E04FF000781FFA8EFE84449C
:10B320002C4800944FEA490900EB4C100A4606EB02
