:020000040800F2
:10000000F8FF012075120A08F5120A080D87080882
:10001000F5120A08F5120A08F5120A080000000095
:10002000000000000000000000000000F5120A08B7
:10003000F5120A0800000000F5120A08314E0808FF
:10004000F5120A08F5120A08F5120A08F5120A084C
:10005000F5120A08F5120A0895930808C1940808D1
:1000600085940808499408080D940808FDE60908D5
:10007000EDE60908DDE60908CDE60908B9E6090854
:10008000A5E6090891E60908F5120A08F5120A081A
:10009000F5120A08F5120A08F5120A08D1930808A1
:1000A000F5120A087DF60908F5120A086DF6090826
:1000B0005DF609084DF609083DF6090831E509081D
:1000C00055E5090875E4090899E4090831E70908C4
:1000D00025E70908F54E0808E94E0808DD4E08082E
:1000E00059930808F5120A0800000000E5F5090810
:1000F000F5F50908D5F509081DF609087DE6090892
:10010000F5120A0841B709082DF6090819E7090888
:10011000D14E0808C54E0808F5120A0809870408D8
:1001200069E6090855E6090841E609082DE60908C7
:1001300019E60908F5120A08F5120A08F5120A0864
:1001400000000000000000000000000000000000AF
:1001500005E60908F1E50908DDE50908B94E0808D2
:10016000B1E30908D9E30908F5120A08F5120A08EB
:10017000F5120A08F5120A08F5120A080000000034
:10018000F5120A08F5120A08AD4E0808A14E080833
:100190000DE70908F5120A08F5120A08F5120A080F
:1001A000F5120A08F5120A08F5120A08F5120A08EB
:1001B000F5120A08F5120A08F5120A08EDE2090814
:1001C00015E30908F5120A08F5120A08F5120A08DB
:1001D000F5120A0891890408F5120A08F5120A08AE
:1001E000F5120A08F5120A08F5120A08F5120A08AB
:1001F000F5120A08F5120A08F5120A08F5120A089B
:10020000F5120A08F5120A08F5120A08F5120A088A
:10021000C5F50908B5F50908A5F50908F5120A0894
:10022000F5120A08F5120A08F5120A080000000083
:1002300075B90908F5120A0800000000F5120A084D
:10024000F5120A08F5120A08F5120A08F5120A084A
:10025000F5120A08F5120A08F5120A08F5120A083A
:10026000F5120A08F5120A08F5120A08F5120A082A
:10027000F5120A08F5120A08F5120A080000000033
:10028000F5120A0800000000F5120A08000000003C
:0802900000000000F5120A084D
:08029800140D0A000100000032
:1002A00000C20100000008000A0600020000004031
:1002B0000100000009026400030100C032090400CB
:1002C000000103000000092111010001223600078E
:1002D00005830308000A080B010202020100090459
:1002E00001000102020100052400100105240100A3
:1002F0000204240202052406010207058203080005
:10030000FF09040200020A00000007050102400084
:100310000007058102400000AD1F0508ADAA0408D2
:10032000C91E050800000000599B0408D91C0508D7
:10033000859B040800000000000000000000000091
:10034000399B0408499B0408299B0408199B04084D
:1003500008000000FFFFFFFF0090D00300000240F4
:1003600010000240000000000000000000000B0030
:10037000000000000000000000000000000002403B
:1003800028000240010000000000000006000C00F0
:10039000000000000000000000000000000002401B
:1003A00040000240020000000000000010000D00AC
:1003B00000000000000000000000000000000240FB
:1003C00058000240030000000000000016000E006C
:1003D00000000000000000000000000000000240DB
:1003E00070000240040000000000000020000F0028
:1003F00000000000000000000000000000000240BB
:1004000088000240050000000000000026001000E7
:10041000000000000000000000000000000002409A
:10042000A0000240060000000000000030001100A3
:10043000000000000000000000000000000002407A
:10044000B8000240070000000000000036002F0046
:100450000000000000000000000000000004024056
:1004600010040240000000000000000000003800FE
:100470000000000000000000000000000004024036
:1004800028040240010000000000000006003900BE
:100490000000000000000000000000000004024016
:1004A00040040240020000000000000010003A007A
:1004B00000000000000000000000000000040240F6
:1004C00058040240030000000000000016003B003A
:1004D00000000000000000000000000000040240D6
:1004E00070040240040000000000000020003C00F6
:1004F00000000000000000000000000000040240B6
:1005000088040240050000000000000026004400AE
:100510000000000000000000000000000004024095
:10052000A00402400600000000000000300045006A
:100530000000000000000000000000000004024075
:10054000B80402400700000000000000360046002A
:100550000000000000000000000000007D0000001E
:10056000D9A90408B5A8040815AA0408C1C3040839
:10057000D9E704083DC40408DD990408B5990408C6
:10058000A5990408000000009DC00408F9F50408BE
:100590007DA7040889F7040845C10408F1990408F7
:1005A000C9990408AD990408010000000000803FCB
:1005B0001A0300000000000000000000000000001E
:1005C0000000000000000000000000000403090417
:1005D00012010002EF0201408304563200020102C0
:1005E0000301000012010002020000408304405792
:1005F00000020102030100000A06000200000040A0
:100600000100000009022200010100E0320904009B
:100610000001030102000921110100012236000737
:1006200005830308000A000009022200010100E01E
:100630003209040000010301020009211101000137
:100640002236000705830308000700000902220084
:10065000010100E032090400000103010200092148
:10066000110100012236000705830308000A00007B
:100670000A060002000000400100000009074300D4
:10068000020104C032090400000102020100052435
:1006900000100105240100010424020205240600C3
:1006A000010705820308001009040100020A000086
:1006B000000705010240000007058102400000001C
:1006C00009024300020100C03209040000010202D5
:1006D0000100052400100105240100010424020288
:1006E0000524060001070582030800100904010023
:1006F000020A00000007050102000200070581024E
:100700000002000009024300020100C03209040097
:10071000000102020100052400100105240100016E
:1007200004240202052406000107058203080010C4
:1007300009040100020A0000000705010240000050
:1007400007058102400000001000000005010905B6
:10075000A101A10005010930093109320933093528
:100760000934093609371581257F750895088102F6
:10077000050919012908150025019508750181024F
:10078000C0C0000009211101000122360000000054
:1007900000FF0000000000000000AA550701000053
:1007A0000101AA55050100007EFF0000FFFFFFFFC9
:1007B00008000000145E0A08FF1FFF1F2D202D2DCA
:1007C000202D2D2D2D202D2D2D2D00000000000081
:1007D0000000000000000000000000AA550B01000E
:1007E00000AA5505010000AA550902000000AA55FB
:1007F00003009F0001000000C012000004920024CA
:1008000000000000DC910024000000000100000056
:1008100098DB0A0814DB0A080000000005B6070888
:10082000A08601000400000000000000000000009D
:1008300000000000000000000000000000000000B8
:1008400000000000000000000000000000000000A8
:1008500098DB0A08A0DB0A08000000004133080802
:10086000E803000004000000000000000000000099
:100870000000000000000000000000000000000078
:100880000000000000000000000000000000000068
:10089000A8DB0A080000000000000000B90F0000FB
:1008A0007D000000FF0000000000000000000000CC
:1008B0000000000000000000000000000000000038
:1008C0000000000000000000000000000000000028
:1008D000EC5A0B080000000000000000ED050000CD
:1008E0007D000000FF00000000000000000000008C
:1008F00000000000000000000000000000000000F8
:1009000000000000000000000000000000000000E7
:1009100018EC0A080000000000000000351100007B
:100920007D000000FF00000000000000000000004B
:1009300000000000000000000000000000000000B7
:1009400000000000000000000000000000000000A7
:10095000B0DB0A080000000000000000652A08085B
:10096000E803000003000000000000000000000099
:100970000000000000000000000000000000000077
:100980000000000000000000000000000000000067
:10099000B4DB0A0800000000000000006D1B07081F
:1009A000102700000300000000000000000000000D
:1009B0000000000000000000000000000000000037
:1009C0000000000000000000000000000000000027
:1009D00000570B080000000059340608A9880808D1
:1009E0005F7600000500000000000000000000002D
:1009F00000000000000000000000000000000000F7
:100A000000000000000000000000000000000000E6
:100A1000905A0B080000000000000000B1A4080874
:100A2000102700000100000000000000000000008E
:100A300000000000000000000000000000000000B6
:100A400000000000000000000000000000000000A6
:100A5000C0DB0A080000000000000000091F0808B1
:100A6000E803000005000000000000000000000096
:100A70000000000000000000000000000000000076
:100A80000000000000000000000000000000000066
:100A9000CCDB0A0800000000000000003DB9070898
:100AA000204E0000030000000000000000000000D5
:100AB0000000000000000000000000000000000036
:100AC0000000000000000000000000000000000026
:100AD000DCDB0A080000000000000000FDB607088B
:100AE000204E000003000000000000000000000095
:100AF00000000000000000000000000000000000F6
:100B000000000000000000000000000000000000E5
:100B1000ECDB0A080000000000000000A52F080818
:100B2000400D030003000000000000000000000072
:100B300000000000000000000000000000000000B5
:100B400000000000000000000000000000000000A5
:100B5000FCDB0A0800000000000000004DE7070869
:100B6000102700000100000000000000000000004D
:100B70000000000000000000000000000000000075
:100B80000000000000000000000000000000000065
:100B900040DB0A0800000000000000009DC60508B8
:100BA000102700000300000000000000000000000B
:100BB0000000000000000000000000000000000035
:100BC0000000000000000000000000000000000025
:100BD00004DC0A080000000000000000B96C0608F0
:100BE000A0860100010000000000000000000000DD
:100BF00000000000000000000000000000000000F5
:100C000000000000000000000000000000000000E4
:100C10000CDC0A080000000000000000E5280808BD
:100C200050C30000010000000000000000000000B0
:100C300000000000000000000000000000000000B4
:100C400000000000000000000000000000000000A4
:100C500014DC0A080000000000000000B1260808AB
:100C6000A08601000000000000000000000000005D
:100C70000000000000000000000000000000000074
:100C80000000000000000000000000000000000064
:100C900020DC0A0800000000000000009D22080877
:100CA000A86100000100000000000000000000003A
:100CB0000000000000000000000000000000000034
:100CC0000000000000000000000000000000000024
:100CD0002CDC0A080000000000000000891606084D
:100CE000A0860100010000000000000000000000DC
:100CF00000000000000000000000000000000000F4
:100D000000000000000000000000000000000000E3
:100D100038DC0A0800000000000000008D530808BD
:100D2000A00F000001000000000000000000000013
:100D300000000000000000000000000000000000B3
:100D400000000000000000000000000000000000A3
:100D500044DC0A080000000000000000811C0608B6
:100D6000102700000100000000000000000000004B
:100D70000000000000000000000000000000000073
:100D80000000000000000000000000000000000063
:100D900050DC0A080000000000000000BDBD07088C
:100DA000A00F000001000000000000000000000093
:100DB0000000000000000000000000000000000033
:100DC0000000000000000000000000000000000023
:100DD0005CDC0A080000000000000000099F050814
:100DE0001A410000010000000000000000000000A7
:100DF00000000000000000000000000000000000F3
:100E000000000000000000000000000000000000E2
:100E100060DC0A08000000000000000055240508FE
:100E2000102700000100000000000000000000008A
:100E300000000000000000000000000000000000B2
:100E400000000000000000000000000000000000A2
:100E500028DB0A0800000000000000001D530608FF
:100E600050C300000100000000000000000000006E
:100E70000000000000000000000000000000000072
:100E80000000000000000000000000000000000062
:100E90006CDC0A080000000000000000A136050814
:100EA000400D0300000000000000000000000000F2
:100EB0000000000000000000000000000000000032
:100EC0000000000000000000000000000000000022
:100ED00074DC0A0800000000000000005DB607088E
:100EE000400D0300000000000000000000000000B2
:100EF00000000000000000000000000000000000F2
:100F000000000000000000000000000000000000E1
:100F10007CDC0A08000000000000000095FF0508C6
:100F200050C30000030000000000000000000000AB
:100F300000000000000000000000000000000000B1
:100F400000000000000000000000000000000000A1
:100F500088DC0A080000000000000000A9C507089E
:100F600040420F00000000000000000000000000F0
:100F70000000000000000000000000000000000071
:100F80000000000000000000000000000000000061
:100F900094DC0A0800000000000000007DBE070885
:100FA00050C300000000000000000000000000002E
:100FB0000000000000000000000000000000000031
:100FC0000000000000000000000000000000000021
:100FD0000100000000000100E0010000FFFFFFFF32
:100FE0000100000029B20508000000000000000018
:100FF00020600A080000000000000000000000005F
:1010000084660A08000000000000000000000000E4
:1010100030660A080800000042570200000001067E
:10102000425702000000010601FF0000000000001E
:1010300000000000D5E10508379E00240101FF00F3
:10104000FFFFFFFF850E06080D10060800000000D8
:1010500000680A08D10D060800000000000000002A
:1010600064670A08ED110608000000000000000097
:101070001C670A082D202D2D202D2D2D2D202D2DE6
:101080002D00000000000000000000000000000033
:101090000000000000000000000000000000000050
:1010A000CC660A08F88B00249CFF2C01000000008D
:1010B000E4A00024E0150C1700000000359E002479
:1010C0000200000004670A081597002402000000CF
:1010D00010670A081097002488136F17010000009A
:1010E0001297002488136F1700000000CE5A0024C6
:1010F0000000000000000000CC5A002400000000A6
:1011000000000000CA5A0024000000000000000097
:10111000C85A00240000000000000000C65A002445
:101120000000000000000000C45A0024000000007D
:10113000000000005805002400000000000000002E
:10114000989600240300000064680A0808970024A9
:1011500088136F1701000000428C002488136F175A
:1011600000000000F1B205080000000000000000CF
:1011700074680A08369E002401000000C8680A0846
:10118000448C002401000000D4680A083A8C002432
:1011900002000000DC680A080000000000000000F7
:1011A00000000000E8680A08D9B205080000000045
:1011B0000000000084690A08000000000000000030
:1011C00000000000D8690A080000000000000000CC
:1011D00000000000486A0A0814970024020000007A
:1011E000806A0A083E8C0024E0150C1700000000FD
:1011F000A8A80024FCA800240100000000000000B2
:10120000000000000000000084800A08B5F5050811
:10121000000000000000000014800A08D601000051
:10122000FFFFFFFF01000000FA00000001000000C6
:1012300001000000010000000001010100FF0000AA
:10124000FCA600240000F40101000000FAA600241E
:101250000000F40101000000F8A600240000F401E1
:1012600001000000F6A600240000F40101000000C7
:10127000F4A600240000F40101000000F2A60024FE
:101280000000F40101000000F0A600240000F401B9
:1012900001000000F1220608C52206080000000037
:1012A000946C0A08E0A6002405320100EEA6002492
:1012B0006400F40101000000ECA600246400C409ED
:1012C00001000000DEA60024E803D00701000000B2
:1012D000DCA60024E803D00701000000DAA6002401
:1012E000E803D00701000000D8A600241E00B80BB8
:1012F00001000000E6A6002405000F000100000028
:10130000E8A6002403000A0001000000D6A600247D
:101310001E00F40101000000EAA600240200000003
:10132000206D0A08D4A60024140064000100000007
:10133000E2A600243200E80301000000D2A6002447
:101340000000C80001000000AD99002400C80100A1
:10135000AC99002400500100AB990024005A010010
:10136000A9990024020000002C6D0A0874E30A0801
:101370007CE30A088A5A00240100C4090000000026
:10138000885A00240100C40900000000865A002485
:101390000100C40900000000845A00240100C409AF
:1013A00000000000805A00240100C4090000000071
:1013B000825A00240100C409000000007E5A002463
:1013C0000100C409000000007C5A00240100C40987
:1013D000000000005797002400C801005697002421
:1013E00000C80100549700240000FFFF0A0000001D
:1013F000529700240100C80001000000509700240B
:1014000032003075320000004E9700247EFF140039
:10141000050000004C97002405002C010500000089
:101420004B970024055A05004897002400FF01004F
:101430004A97002402000000CC10002446970024A4
:1014400003000000DC5A0A084797002400FF01004F
:101450004997002402000000CC1000244597002486
:1014600003000000DC5A0A08752206082522060837
:1014700000000000386D0A0810A70024EE02CA0818
:10148000010000000EA7002400C801006400000055
:101490000DA7002400C80100640000000CA7002470
:1014A00002000000446E0A08329700240000803ECB
:1014B000050000003097002480C1803E0500000038
:1014C0002A9700240083007D05000000289700244F
:1014D00080C1803E050000002397002400FF01002A
:1014E0001C9700246400F401010000001A970024F6
:1014F00004000000506E0A08199700240200000042
:10150000646E0A08DD9700240D000000706E0A0862
:10151000DA97002400640100D897002432001027D5
:101520000A000000D69700240D000000706E0A0823
:10153000D59700240D000000706E0A08D49700248F
:1015400002000000A86E0A08000000000000000071
:1015500000000000B46E0A0816A700243E00000038
:10156000EC6E0A0814A700240100FF7F01000000B0
:1015700013A7002402000000E86F0A08DF97002488
:1015800003000000F86F0A08DE9700240300000043
:10159000F86F0A089A990024000A0100989900241B
:1015A0000000E80301000000969900240000E80311
:1015B00001000000949900240000E80301000000ED
:1015C000929900240000E803010000008A99002499
:1015D0000000E80301000000909900240000E803E7
:1015E000010000008E9900240000E80301000000C3
:1015F0008C99002400140100A89900240200000026
:1016000008700A08A69900240000F40101000000F7
:10161000A49900240000F40101000000A299002414
:101620000000F40101000000A09900240000F40172
:10163000010000009E9900240000A00F010000009E
:101640009C9900240000A00F010000008F9A002444
:10165000196401008E9A00240200000014700A0828
:101660008C9A0024E803D0070A0000008A9A00241C
:10167000006401000A0000007F9A00240064010059
:101680007E9A002400640100869A00240064010010
:101690000A000000859A0024006401000A0000008E
:1016A000849A0024006401000A000000899A002442
:1016B00000FF01000A000000889A002400FF0100DA
:1016C0000A000000879A002400FF01000A000000C1
:1016D000839A002401FF01000A000000829A00247E
:1016E00001FF01000A000000819A002401FF0100AF
:1016F0000A000000E89700240000F4010100000047
:10170000E69700240000A00F01000000E4970024E9
:101710000000A00F01000000E29700240000A00FCD
:1017200001000000E09700240000A00F010000006D
:101730007F9E002400C801007E9E002400640100FA
:101740007D9E0024006401007C9E00240064010052
:101750007B9E0024006401007A9E0024FF080100A3
:10176000799E002401640100DDB80508A1B80508D0
:101770000000000020700A08829E0024013201004F
:10178000819E00240100000090700A08809E0024C1
:101790000400000098700A08789E0024006401008C
:1017A000769E00241400E80301000000749E0024CB
:1017B000E80330750A000000739E002400C8010091
:1017C000729E002400C80100719E002400C8010020
:1017D000709E002400320100849E0024004B010012
:1017E000839E002404000000AC700A086F9E002451
:1017F000006401000A000000C6AA00240000D0070F
:1018000001000000C1AA002400C80100C0AA0024F1
:1018100000C80100BFAA002400C80100C4AA002417
:101820000000D00701000000BEAA002400C801008B
:10183000BDAA002400C80100BCAA002400C8010001
:10184000C2AA00240000D00701000000BBAA0024A7
:1018500000C80100BAAA002400C80100B9AA0024E7
:1018600000C8010089B6050871B60508000000002F
:10187000C0700A08D1970024005A0100D0970024B4
:1018800000C80100CE970024E803D0070100000043
:1018900000000000000000008D3706085C710A0897
:1018A00053544D33324837343300000044970024FA
:1018B000000301004397002400030100ADB50508B3
:1018C00061B5050800000000B0710A0821B50508DF
:1018D000D9B40508000000004C720A08F9B50508E3
:1018E00099F5050800000000CC720A08349700241E
:1018F00001030100B52306088D230608000000003F
:1019000024760A085DB4050811B40508000000003B
:1019100094760A0899B605087121060800000000AF
:1019200030770A089D3B0608DD230608000000000A
:10193000D8770A08F5B6050800000000000000008E
:1019400064780A08D1B7050879B7050800000000D7
:10195000C8780A0865B8050829B80508000000001D
:1019600070790A08CDF8050819B9050800000000CB
:10197000FC790A08D1A60024010601003DB705083C
:1019800009B7050800000000F87A0A0801F8050800
:1019900039F7050800000000687B0A08B39A0608BA
:1019A000ED36060800000000B87C0A08D0A6002426
:1019B0000103010041B6050811B60508000000004A
:1019C0008C7D0A08119B0608000000000000000042
:1019D000F07D0A08A9B4050881F50508000000009B
:1019E000707E0A08000000000000000000000000F7
:1019F000FC7E0A08F92106086D3706080000000081
:101A00006C7F0A0801000000FFFFFFFF0000803F1D
:101A100000000000000000000000000000000000C6
:101A200000000000000000000000000000000000B6
:101A3000000000000000803F0000000000000000E7
:101A4000000000000000803F0000000000000000D7
:101A5000000000000000803F0000000000000000C7
:101A600000000000010000000000FA430000FA43FB
:101A70000000803F5DE90708000000000000000052
:101A800000000000FFFFFFFFFF000000000000005B
:101A9000ECCC00240800000000000000DCCC002496
:101AA0000800000019080408FD070408B907040825
:101AB00000000000AD070408990704088507040822
:101AC0000000000000000000000000000000000016
:101AD0007507040800000000650704087D990408E4
:101AE0007199040809A704081DA704082999040886
:101AF000F5A60408E1A60408ED0D04086107040832
:101B0000DD060408610D0408685E0C00FFFFFFFF9E
:101B10000200000000100000100002400000000061
:101B20000011000028000240000000000012000028
:101B30004000024000000000001300005800024076
:101B400000000000001400007000024000000000CF
:101B50000015000088000240000000000016000090
:101B6000A00002400000000000170000B800024082
:101B700000000000002000001004024000000000EF
:101B800000210000280402400000000000220000A4
:101B900040040240000000000023000058040240FE
:101BA000000000000024000070040240000000005B
:101BB000002500008804024000000000002600000C
:101BC000A00402400000000000270000B80402400A
:101BD0000000000001000000A00F0000B80B000092
:101BE00002FFFF01FFFF0000F4560B08000008028F
:101BF0000503060000000000FC560B080100080267
:101C000005040600000000005CFF0A080200FE0157
:101C10000110030000000000C8E60A0803001402D7
:101C2000000300000000000004570B0804001F021E
:101C300002000800000000000C570B0805001F02FE
:101C4000020108000000000014570B0806002502DE
:101C500001001100FE810300FFFFFFFF0B000000E9
:101C6000FFFFFFFF01250000F0C90A080100000086
:101C700050C30000010100002CD20A08E019002422
:101C80001B240508172405080F240508052205084C
:101C9000413505086D3505089D34050805240508FE
:101CA000F5230508E5230508D5230508FD210508CA
:101CB00001FFFF01F40100002A000000E001040020
:101CC000E00102080500000000000000900104008F
:101CD000900102080500000000C0000000000000A4
:101CE000000000000F0600000001000000000030AE
:101CF000CC2F0030000300010100000020F400247C
:101D0000200A01240003000001000000010000007F
:101D1000741A002400000000000000000000000011
:101D200000000000000000000000000000000000B3
:101D300000000000000000000000000000000000A3
:101D40000000000000000000000000000000000093
:101D50000000000000000000000000000000000083
:101D60000000000000000000000000000000000073
:041D7000000000006F
:101D740001000000010000001C1B00200000000006
:041D8400200000003B
:0828000000001E080000200882
:020000040804EE
:100000002DE9F04F022389468A462DED108B99B0D9
:10001000DFEDCABA14930346169004331592179372
:100020004FEADA06169DDDF85CC04FEACA0305EB1D
:1000300046111396F0004FF0000B01EB0614370148
:100040000390A6EB86020194049706EB460E04EBA0
:10005000C202041D381D06EB86072C44C6EBC608F9
:1000600002972844029D02EB46174FEAC808ED00AC
:1000700001EBC60602954FEA0E1505954FEACE052F
:100080000695139D4FEA451E019D95ED007AD344D8
:1000900092ED005AD7ED004AD945D1ED006A50EDF6
:1000A000013A35EE241AD6ED002A1CED016A73EEF2
:1000B000875A54ED017A33EEC73A36EE264A77EE88
:1000C000A21A36EE666A77EEE27A74EE256A71EE6F
:1000D000812A77EE633A37EEC57A36EEA22A77EEBA
:1000E000E47A76EEE26A0CED012A37EE247A77EEB6
:1000F000857AD1ED018AC1ED006A74EE655A96EDFC
:10010000015AB0EE460A94ED004AA7EE2B6AD2EDF2
:10011000010AE7EEAB3A74EE456AD7ED012AA7EE85
:100120006B0A9CED007AD5ED014A34EE054A37EEB4
:10013000689A90ED005A36EEE02A76EEE26A30EEEA
:10014000A28A32EE222A76EEA06AF0EE492A75EEF5
:10015000640A37EE287A75EE249AE2EE6B2A74EE82
:10016000C54AF0EE608AB0EE40AAE6EEAB4AE6EE93
:10017000AB8AA6EEEBAAF0EE496AB0EE629A37EED1
:10018000695AE2EE2B6AB0EE432A74EE08AAA7EE93
:10019000EB9AA7EEAB2A77EE297A35EE617A75EE07
:1001A000C89A35EE415A75EEC45A37EEAABA77EEC0
:1001B000EA7A37EE011A8CED00BA36EE287AC1EDF4
:1001C000017A39EE844A76EEC27A194475EE885A7D
:1001D0009C4435EE215A00ED014A70EE8A0A70EE19
:1001E000244AC5ED005A36EE686A80ED001A72EEB8
:1001F000A33A85ED015A33EE093A04ED017A72EE25
:10020000266A87ED006A1D44C6ED000A1844C2ED57
:10021000004AC4ED007A1C44C7ED016A1F44C6EDD4
:10022000013A1E4482ED013A1A443FF62EAF139A6A
:10023000072A40F2C681039A0EF1080E169F08F1B4
:1002400008000832029E059D4FF0000894463A4689
:10025000083608357244069C0499D346109207EB81
:100260000C0208340C310F92BA190E927A190D92C1
:100270003A190C923A180B927A18099207F10C026B
:100280000A9201220892149ADDF824C09044159A2B
:100290000A9F02EBC8020B9EA8EB880E0C9D02EB96
:1002A000C80192ED00BA0D9C01EBC802D1ED00AA85
:1002B0000E9802EBC80192ED00AA01EBC802D1ED45
:1002C000009A02EBC80192ED009A01EBC802D1ED51
:1002D000008A0F9902EB0E1E92ED008A109A0EEB27
:1002E000C80ADEED017A1192CDED047A0AEBC8025C
:1002F000DAED017A02EBC80A1291CDED057AD2ED62
:10030000017A0AEBC802DDF820E0CDED017ADAEDE2
:10031000017A02EBC80ACDED067AD2ED017A0AEB3A
:10032000C802CDED027ADAED017ACDED077AD2ED91
:10033000017ADDE91121CDED037A01E0F304353FC7
:1003400017ED017ADE44D2ED007A94ED005AF145C2
:10035000D5ED006A37EE274AD0ED004A77EE677A8E
:100360001CED016A96ED007A91ED001A76EE055AC1
:1003700036EE872A97ED00DA71EE24EA76EE453AFA
:1003800074EE252A31EE641A35EE466A3EEE825A44
:1003900074EE655A31EE664A72EE854A31EE471ABE
:1003A000B0EE67CA47ED014A34EE077AD1ED014A53
:1003B00031EE261AD0ED016A72EEC52A95ED014A9A
:1003C000A7EE6BCA74EEE60A96ED010AE7EE2B7A09
:1003D00092ED017A94ED015A74EEA64A3DEE473A49
:1003E000DCED006A70EEC4CA70EEC00AB0EE43EAFB
:1003F0007CEE80CA74EE001A70EE840AACEEEBEA72
:1004000036EEC54A3DEE077AB0EE63DA36EE850A7F
:10041000ACEEAB3AF0EE4EDAA1EE2BDAA1EE2B6A9F
:10042000E1EE6BDA75EE666AB0EE441AF0EE4CCA95
:1004300037EE405AA0EEAB1AE0EEEBCAE0EEAB6A44
:1004400037EE007A74EEA10A35EEE1FA75EEE45A61
:1004500075EE6EFA37EE600A71EEA55ADDED061AFA
:1004600035EE425A7FEE244A3FEE822A22EEE1FA2E
:1004700061EE80FADDED051A3EEE855A3EEE066A23
:1004800073EEAD3A21EE82EA73EE4DDA3DEE033AB9
:1004900024EEE1DADDED071A34EE2C4A7CEE266A12
:1004A00061EE85CA25EEE1CADDED041A77EE81EA38
:1004B00077EEC17AE9EEA2FADDED032AA9EE80FA21
:1004C0009DED030AAAEEA4EADDED014AAAEE82DA66
:1004D0009DED012AE8EEA5CADDED025AA8EE85CA17
:1004E0009DED025A21EEAD1A62EE832A6EEEE11AFC
:1004F00027EEC00A64EEA34A26EEC22A65EE865AAB
:1005000024EE455AABEE2E1AEBEE2D1AE8EE272A12
:10051000A8EE030AEAEE264AAAEE232AE9EE045AD6
:10052000A9EE065A37EE207A87ED007A1F44C2ED15
:1005300000FA82ED01FA1A440CED01EA8CED00DAC2
:100540009C44C4ED00CA84ED01CA1C4481ED001A2C
:10055000C1ED011A1944C6ED002A86ED010A1E44B8
:10056000C0ED005A80ED015A1844C5ED004A85EDF2
:10057000012A1D443FF6E4AE1099089A0831013271
:1005800010910F99089208310F910E9908310E9130
:100590000D9908310D910C9908310C910B99083186
:1005A0000B910A9908310A91099908310991139917
:1005B00091427FF468AE149B8A46DB009BB2149391
:1005C0002EE519B0BDEC108BBDE8F08F104800236C
:1005D000024611780632032915D00133062BF8D1D3
:1005E000426A052A0ED002EB4203013200EB4303BC
:1005F0004262032040F2EB3140F2FF321870598022
:100600009A807047704703EB430300EB4303F0E726
:10061000D81A0024124B30B49D6A6B6A28B943EA99
:1006200001430020AB6230BC7047AC6A013803EB79
:1006300014440BD0002303F14002013305EB820286
:10064000DBB25268834204EB1244F4D3403044EAF4
:10065000014405EB80004460002030BC704700BFBF
:10066000D81A002430B5EFF31181802383F3128868
:100670000A4AD2F83034D2F83444D2F83004D2F8EE
:100680003454CAB282F31188013BA84294BF4FF49C
:10069000006000201B1B184430BD00BFD81A002486
:1006A000012380F851307047014BD3F8380470476C
:1006B000D81A002401207047024BC3F83C24C3F829
:1006C00040147047D81A0024024BC3F84424C3F8DE
:1006D00048147047D81A002470477047212870B515
:1006E00005D0222829D0202810D0002070BD002954
:1006F000FBD0072AF9D1184B18791C685A799B79D5
:10070000087100200C604A718B7170BD0029ECD01B
:10071000072AEAD11148104B0C680E794D79D0F8B0
:10072000402489791C601E715D719971002ADCD0AA
:100730002146D0F83C049047D7E70029D5D0022ABB
:10074000D3D1064AD2F84834002BCED00988D2F84B
:1007500044049847C9E700BF00000024D81A0024C9
:100760000020704703460A2201481A80704700BFE4
:10077000080000240346642201481A80704700BF25
:1007800014000024012901D000207047014BD3F848
:100790009030184700000024012901D009F09EB9CB
:1007A000014BD3F88C30184700000024014BD3F8DC
:1007B000883018470000002410B40B780A4604461D
:1007C00003F00303012B05D0022B0BD000205DF8B2
:1007D000044B70478B8843B9204611465DF8044BA3
:1007E00011F0C6BA8B88832BF6D0034B5DF8044B0F
:1007F000D3F88030184700BF0000002438B5054BFF
:1008000004460D46DB6F9847294620460AF03CF91E
:10081000002038BD0000002438B5054B04460D46C5
:100820009B6F9847294620460AF066F9002038BD9C
:100830000000002470B5554C00234FF4F0722021C5
:1008400004F58A6084F84C3464F058F804F5C66006
:100850004FF4F072202164F051F894F8110810B1AF
:1008600094F812380BB9002070BD47F017FDC4F89A
:10087000200828B183790BB1412BF4D12323C38005
:100880000D21434E43F08AFDD4F8200847F016FFAF
:1008900094F81208013840B248F0C4FF0223102136
:1008A000C4F8180884F8143859F018F8B6F8B010DD
:1008B000384848F0E3FFD4F8200847F0F9FEFF215C
:1008C0008C2059F09FFE0546D4F8200847F0F6FE2C
:1008D0000421D4F8180859F001F81B2D05D0D4F8DC
:1008E0002008202143F05AFDBDE70122D4F820382A
:1008F00084F84C240BB12322DA80B6F8B0102548D6
:1009000048F0BCFFD4F8200847F0D2FE40210A206E
:1009100059F078FEFF218A2059F074FED4F820089F
:1009200047F0CCFED4F81808042158F0D7FF08216E
:100930001848A6F8B01048F0A1FFB6F8B010154856
:1009400048F09CFFD4F8200847F0B2FE02210020B6
:1009500059F058FED4F8200847F0B0FED4F8180833
:10096000042158F0BBFF94F8292894F82A38012074
:10097000C2F1200294F82818C3F1100384F82B2840
:1009800084F82C3884F8241870BD00BFD81A0024CD
:1009900000000024EC2200242DE9F84F574B984228
:1009A00011D003F568530833984269D00023544AA4
:1009B0001846A2F88838A2F89438C2F88C38C2F8E1
:1009C0009038BDE8F88F4E4C4FF0000B02224D4E90
:1009D00004F63405D9464FF4007A4FF48078C4F811
:1009E0003028D6F8B420012759465A45BB4403D0D5
:1009F000D4F8A40854F012FF4FF4803394F8A818E8
:100A00004FF00072D4F8A40885F82410B721A5F897
:100A100004A0A5F8108085F81290A5F806802F761E
:100A20002862C5E9023255F0F5F8D4F83028364B83
:100A300093456F7645F8283BD3DB84F89698D4F835
:100A400030380120D4F84018B4F83828D4F83C588D
:100A500012FB03F201FB03F3B4F84468A4F88828FE
:100A6000C4F89038B4F83A28284BC4F8AC18C4F845
:100A70008C58A4F89468A4F88A28C4F88438A0E7AD
:100A80001F4C02224FF0000B1E4E04F634054FF4AB
:100A9000806A4FF040094FF40068C4F83028D6F857
:100AA000B420012759465A45BB4403D0D4F8A408C2
:100AB00054F0B4FE4FF00062D4F8A4184FF40030A4
:100AC00094F8A8C8296285F824C0A5F804A0A5F860
:100AD0001090A5F80680AF74C5E90202FFF776FD15
:100AE00028466F7654F0E4FFD4F83028084B93453D
:100AF00045F8283BD3DB84F89678A0E71971EF001E
:100B0000D81A002400000024704B0A08C84B0A08B9
:100B10009C4B0A082DE9F843884600294FD0471816
:100B2000461E284C802507F1FF39EFF3118185F32C
:100B30001288D4F83024C9B2D4F83404D4F830344C
:100B4000D4F834C481F31188634594BF4FF4006333
:100B50000023121A1344012B1AD1012044F0C8F8C3
:100B6000EFF3118185F31288D4F83024C9B2D4F898
:100B70003404D4F83034D4F8347481F31188BB428F
:100B800094BF4FF400630023121A1344012BE4D0E6
:100B9000EFF3118285F31288D4F83434D2B216F808
:100BA000011F234483F8B018D4F834340133C3F35D
:100BB0000A03C4F8343482F311884E45B5D1404657
:100BC000BDE8F883D81A0024F8B5002390F85050F7
:100BD00080F85030CDB10F4E96F85422032A16D12A
:100BE000D6F88C7200F13C0429462046FFF792FFAC
:100BF000D6F88C322D1A0444DB1B322B01D8002D81
:100C0000F2D1B5FA85F04009F8BD0120FCE718469D
:100C1000FAE700BFD02B0024002280F85120D3E750
:100C200090F85020531C0244DBB280F8503082F818
:100C30003C1090F851200AB1132B00D9C4E770473B
:100C4000F8B50B4E0D46144696F85432032B0ED1D0
:100C5000D6F88C72002C0ADD21462846FFF75AFF91
:100C6000D6F88C32241A0544DB1B322BF2D9F8BD9E
:100C7000D02B00240E4B07B5D3F8B8205208B2FB96
:100C8000F1F3B3F5803F02D3012AF7D8F9E799B21F
:100C900001905EF08FFE0749074B002201F6FC2110
:100CA00001980B6003B05DF804EB5EF029BD00BF56
:100CB00000000024D02B0024591406080F49D1F855
:100CC000703210B5B3B111F8384CD3F8042244B1E6
:100CD00000244023D1F88802012111F0CFF82046EA
:100CE00010BD4FF40073D1F88802012111F0C6F84D
:100CF000204610BD0224204610BD00BFD02B00248A
:100D000010B50C4CD4F8383463B10B49013BD1F821
:100D1000042BC4F8383412F8014BC1F8042B0470CA
:100D200013B10123184610BDFFF7C8FF0123184671
:100D300010BD00BFD81A0024D02B002413B5074CD7
:100D4000D4F8043B03B9FEE701A8FFF7D9FF002858
:100D5000F6D09DF8040002B010BD00BFD02B0024D7
:100D600010B50B68064C074AC4F83834C2F8040BB7
:100D70000BB1002010BDFFF7A1FF002010BD00BF88
:100D8000D81A0024D02B0024154BDB68C3F30223B0
:100D900010B4C3F107041A1D042C28BF0424062A2A
:100DA0004FF0FF328CBF033B0023A240002821EA12
:100DB000020101FA03F108DB09010A4BC9B203443D
:100DC00083F800135DF8044B704700F00F00090131
:100DD000054BC9B2034419765DF8044B704700BF58
:100DE00000ED00E000E100E0FCEC00E02A4B41F205
:100DF00087302A490022D3F8B830A1FB03132849D1
:100E0000DB0C10B5274C013B82B0C4F8140B04F680
:100E10000830C4F8081BC4F8182BC4F8102BC4F809
:100E20000C3B0EF0DFF9204B06213720D3F8E820E9
:100E300042F02002C3F8E820D3F8E83003F02003A2
:100E40000193019BFFF7A0FFD4F8083B4FF400008B
:100E50001649174A4860D96841F00101D96099687C
:100E60000A40062A06D0B2F5803F03D01A6842F045
:100E700001021A600F4B0020D4F8702203F50B64B6
:100E80000D49C2F81002C3F84804C3F84004C2E98F
:100E9000811402B010BD00BF0000002483DE1B439C
:100EA00000140040D02B00240044025800E100E070
:100EB00007000100D81A002418370024014BD8601D
:100EC000704700BF50400058012008B5FFF7F6FFFB
:100ED00072B65EF051FE00BF03689B0AA3F5801353
:100EE000522B00D970470E4A134470B593F88440D2
:100EF00084B00D2C12D800294FF0000309494FF09F
:100F0000010514BF1E460226427901EB8410694692
:100F1000CDE90065CDE902330EF052F804B070BDA2
:100F2000704B0A08183F00240C4B4FF6FF71D3F8A2
:100F3000B82010B5044652085EF03CFD0021204662
:100F4000FFF7CAFF0649074B2046002201F5306132
:100F50000B60BDE810405EF0D3BB00BF0000002472
:100F6000D02B0024F1E705084309012200F01F00FF
:100F70008AB0023B02FA00F0082B11D8DFE803F038
:100F8000665A4E42362A1E120500364BD3F8F4201C
:100F90000243C3F8F420D3F8F42010400190019BE1
:100FA0000AB070472F4BD3F8E0200243C3F8E0208B
:100FB000D3F8E02010400590059BF1E7294BD3F8CA
:100FC000E4200243C3F8E420D3F8E4201040029068
:100FD000029BE5E7234BD3F8D4200243C3F8D42087
:100FE000D3F8D42010400690069BD9E71D4BD3F8C8
:100FF000DC200243C3F8DC20D3F8DC20104008904A
:10100000089BCDE7174BD3F8D8200243C3F8D8206C
:10101000D3F8D82010400990099BC1E7114BD3F8B1
:10102000EC200243C3F8EC20D3F8EC2010400390EE
:10103000039BB5E70B4BD3F8E8200243C3F8E82045
:10104000D3F8E82010400490049BA9E7054BD3F89F
:10105000F0200243C3F8F020D3F8F02010400790AE
:10106000079B9DE7004402582DE9F04FDFF8DC8034
:101070002A4D44462DED068B8DB0CDE90A01049230
:101080000FCD0FC40FCD0FC4254B95E8070093F883
:10109000123684E80700042B00F2A981DFE813F080
:1010A000D801A701A2010500E6019FED1E8ADFED30
:1010B0001E9A1E4A1E4B04981E49002818BF13464C
:1010C0001D4AC8E9062139EE887ADFED1C7AF5EE73
:1010D000006ADFF87CB04FF0000928EE278AB0EEF6
:1010E000679ADA4686EE87AAC8F82430DFED148ABC
:1010F000CB46144B05930B9B5B4500F06D81059A25
:101100000BF1010312F8017BDEB206930592002F6A
:1011100000F0D88100230C4820E000BF484C0A08AA
:10112000C83C0024ACC5A737ACC5A7367522080853
:1011300005B10708D1B60708812208086F12833A63
:1011400000007A44DF420024F4420024140000200E
:10115000480000200133152B00F0B48103EB43025B
:101160004FEA4309815CB942F4D1C74B1A4492F863
:101170002D16002900F0AE81384643F015F80468BA
:101180000546039020465CF031FA697943F028F86F
:1011900002780892002A40F095813D09BA4B07F089
:1011A0000F02013D4B444FF00309062D83F86D6695
:1011B00083F86C9600F24381B44B029303EB450332
:1011C000B3F8040140FA02F313F0010300F03D818B
:1011D0000124AF4F04FA02F3013B18405FF0D2FE46
:1011E000029BAC4A1D4495F814110144039807EB87
:1011F000C105EE7185F8069057F83130CAF81450E1
:101200001A44029B007A920A079003EB4202B2F85A
:101210001C01FFF7A9FEAE8857F83110002E39D017
:10122000089BA646CDE908BADDF81CA00EFA03F526
:101230002E4229D0DC0803F007024FF00F0C5800B3
:1012400001EB84044FF0020B9200276A0CFA02FCB7
:101250000AFA02F227EA0C0C09FA00F70BFA00F07E
:1012600042EA0C0222620A6822EA0702104308607E
:101270008A6822EA07028A604A6822EA05054D6008
:10128000CA6822EA0707CF60013336FA03F2CDD1EC
:10129000DDE908BA039B1C68049B002B00F0BD80AD
:1012A000794BB3F8103607EE903AF8EEE77AFCEE99
:1012B000E77A17EE905A784B9C420FD003F5806383
:1012C0009C420BD0754A03F580439C4218BF944260
:1012D00004D003F580639C4240F0AA8014F0BCFB6C
:1012E0006F4BD969C1F302216D4A4FF6FF73126942
:1012F000C2F3C03241EAC201029A0A44049992F848
:10130000302100FB02F0B0FBF5F21A44120CB0FBE6
:10131000F2F2002970D05C49B2FBF5F591F8121693
:10132000ABB204296ED007EE902AF8EE676A66EE3B
:10133000887A28EEE77A544991F81306A6EEA97A3E
:101340000A990190504600910399CAED027A8AEDFC
:10135000037A3AF0CBFDBBF1000F65DDDAF804301B
:10136000D8F83820934261D0BBF1010F5CD0D8F897
:10137000502093425AD0BBF1020F55D0D8F86820C4
:10138000934253D0BBF1030F4ED0D8F88020934244
:101390004CD0BBF1040F47D0D8F89820934245D0E9
:1013A000BBF1050F40D0D8F8B02093423ED0BBF13E
:1013B000060F39D0D8F8C820D31A18BF0123DDF89A
:1013C00018B001228AF810300AF1180ABBF1080F90
:1013D0000AF8072C7FF48FAE32480DB0BDEC068BB7
:1013E000BDE8F08F9FED308AF0EE489A61E69FED00
:1013F0002F8AF0EE489A5CE623491D4691F81216B2
:10140000042990D107EE905A07EE102AF8EE677A79
:10141000F8EE476A67EE897A8BE7FAFE4A7AFCEEC5
:10142000E77A17EE905A46E70123C8E70023C6E79C
:1014300014F02AFB1A4BD969C1F3021154E7089B37
:10144000CAF81430114B029326E7CAF8143023E788
:101450000023174A01219FED178A0A93164BF0EEDD
:10146000489A0491C8E90632144B2CE60023104A2E
:1014700001219FED138A0A930F4BF0EE489A0491D5
:10148000C8E906320D4B1EE6C83C0024704B0A0822
:10149000604300240000FEA700000140004001401E
:1014A0000044025814000020282930386F120339F4
:1014B000D1B607086F12833A8122080875220808FE
:1014C00000000000044A0020044BC8F81C20C8F8A3
:1014D000243082E70B68FFDEF1B3070875220808A5
:1014E000002850D0284A2DE9F84F0446274B0068C1
:1014F00003449B0A02EB4303B3F81C01FFF734FDDE
:10150000B4F804C02268BCF1000F3AD000204FF0BC
:10151000010B4FF00F0A4FF0030900F007030BFA1D
:1015200000F645004FF0020EC7081CEA060F4FEA0E
:10153000830309FA05F402EB87070EFA05F500F1BB
:1015400001000AFA03FE01FA03F317D0D7F820804E
:1015500028EA0E0E43EA0E033B62136823EA0403F3
:101560002B431360956825EA04059560536823EAC8
:1015700006035360D36823EA0403D3603CFA00F304
:10158000CBD1BDE8F88F7047704B0A080000FEA76A
:1015900000284FD0284A2DE9F84F0446274B006811
:1015A00003449B0A02EB4303B3F81C01FFF7DCFC86
:1015B000B4F804C02268BCF1000F39D000204FF00D
:1015C000010B4FF00F0A4FF0030900F007030BFA6D
:1015D00000F645004FF0020EC7081CEA060F4FEA5E
:1015E000830309FA05F402EB87070EFA05F500F10B
:1015F00001000AFA03FE01FA03F316D0D7F820809F
:1016000028EA0E0E43EA0E033B62136823EA040342
:101610002B431360956825439560536823EA0603BE
:101620005360D36823EA0403D3603CFA00F3CCD1BF
:10163000BDE8F88F704700BF704B0A080000FEA796
:1016400000487047C043002470B4204D064604682B
:10165000E36931EA030323D0D5F8183A9B1AB3F1B2
:10166000007F23681FD25807F2D5E3691B05EFD529
:101670004FF400622023002103202262226822F41A
:10168000D0722260A26822F00102A260C6F8803007
:1016900086F87C10C6F88430C6F8883070BC704775
:1016A000002070BC704723F4D07320220021032057
:1016B0002360A36823F00103A360C6F8802086F8A6
:1016C0007C10C6F8842070BC704700BFC83C002462
:1016D000F8B5044690F88000012800F0AB80B94EC0
:1016E00001272068D6F818CA94F8815084F88070D1
:1016F000012D5FFA85FE67680BD0B7F5800F40F0CB
:101700008F80A568002D40F08B80BEF1040F40F063
:101710008780002B18BF002A00F08780002900F086
:10172000848094F88150042D02D0052584F88150DE
:101730004FF0000E6266A44DB7F5800FC4F884E048
:10174000A4F86A30A4F862304268A4F8683005EA68
:101750000205E165A4F8603045EA0305C4E91CEE22
:101760004560026842F00102026003D1026842F45F
:1017700000720260E2680F2A60D91A4648F2080730
:10178000416989070ED56BB1E16D51F8043B0362E5
:10179000B4F86230E165013B9BB2A4F86230B4F862
:1017A00062309BB2416943EA02053942ADB211D0C1
:1017B000002A41D0056BB4F86A20616E013A41F805
:1017C000045B92B26166A4F86A20B4F86A2092B20F
:1017D00042EA0305002DD3D1D6F8183AA3EB0C0347
:1017E000092B70D843691B070BD4D6F8183AA3EB22
:1017F0000C03092BF6D9D4F8843043F02003C4F845
:101800008430204614F0B2FC0122002384F88120A9
:10181000D4F8840084F88030C01A18BF0120F8BDC5
:101820000023022084F88030F8BD0023012084F8D2
:101830008030F8BD0220F8BD1D46CBE7072A52D8FC
:10184000024619465569AD0715D5A3B1032B40F2E1
:10185000CC80E36B402B40F2DD80E56D55F8043B16
:101860001362B4F86230E565043B9BB2A4F86230C1
:10187000B4F862309BB2556915F4604F12D089B14B
:101880005169090440F18980156BB4F86A20616ED2
:10189000043A41F8045B92B26166A4F86A20B4F895
:1018A0006A1089B2D6F8182AA2EB0C02092A54D879
:1018B00043EA010292B2002A00F0C780226855690B
:1018C000AD07D8D5C1E7204614F050FCD4F88430D9
:1018D000012284F8805043F480731046C4F88430A9
:1018E00084F88120F8BD19464269920713D593B157
:1018F000012B43D9E36B002B40D0E26D52F8043B3F
:101900000362B4F86230E265023B9BB2A4F8623035
:10191000B4F862309BB2426912F4604F11D081B1C9
:101920004269170452D5056BB4F86A20616E023A19
:1019300041F8045B92B26166A4F86A20B4F86A10B8
:1019400089B2D6F8182AA2EB0C02092A05D843EA74
:10195000010292B2002AC7D144E7204614F006FCE7
:10196000D4F884300122002143F48073104684F8B7
:101970008010C4F8843084F88120F8BDE26D32F81C
:10198000023B0384B4F86230E265013B9BB2A4F8E9
:101990006230B4F862309BB2BDE7516901F4C041D6
:1019A000B1F5005F47D9028E616E21F8022BB4F8C1
:1019B0006A206166023A92B2A4F86A20B4F86A100A
:1019C00089B26FE7C83C00240000FFFF028E616E01
:1019D00021F8022BB4F86A206166013A92B2A4F8A9
:1019E0006A20B4F86A1089B2ABE7012B11D1E36D1C
:1019F0001B7882F82030B4F86230E56D013B226834
:101A000001359BB2E565A4F86230B4F862309BB250
:101A100031E7E36B002BEAD0E56D35F8023B038438
:101A2000B4F86230E565023B9BB2A4F86230B4F8CA
:101A300062309BB21FE792F83010626E1170B4F8FA
:101A40006A20616E013A013125E72068CAE600BFCD
:101A5000034690F83C00012800F0AF810220F0B569
:101A6000012483F83D0083F83C40142A54D8DFE871
:101A700012F05B005300530053009E0053005300CC
:101A800053006701530053005300DE00530053001E
:101A900053001D0153005300530015001A68D1F87C
:101AA00008C0156A0F6825F480159F4E1562B24272
:101AB000106AD2F804E0546D20F4001024F4E044DD
:101AC00040EA0C5044EA07240ED0984DAA420BD0AD
:101AD00006F5804605F58045AA4218BFB24203D0FC
:101AE00005F58065AA4204D12EF4003E4D694EEA08
:101AF000852E4D68C2F804E05465D5651062506DBE
:101B00000C6940F400605065506D20F480605065B1
:101B1000516D41EA0421516500220121104683F8EC
:101B20003D1083F83C20F0BD1A688E68156A0F6876
:101B300025F001057E4C1562106A556820F0020000
:101B4000D2F818C03043784E0CEA0404B24244EA9A
:101B500007040ED006F58066B2420AD0754F06F52E
:101B60008046B24218BFBA4203D006F58066B24240
:101B70000BD1CE6820F008008F6925F44075304302
:101B80004E693E4320F0040035434E685560946131
:101B90005663106290690C6940F00800906190698A
:101BA00020F004009061916921439161B4E71A68C3
:101BB0008E68156A0F6825F010055F481562146A73
:101BC000D2F804C024F02004956944EA0614564E65
:101BD0002840B24240EA072000F0F180534DAA426B
:101BE00000F0ED80534E554DAA4218BFB24203D0CB
:101BF00005F58065AA4206D14E692CF4406C8D69CA
:101C000035434CEA850C4E68C2F804C09061966377
:101C1000146290690C6940F400609061906920F44E
:101C200080609061916941EA0421916174E71A68CA
:101C3000D1F808C0156A0F6825F480553A4E156230
:101C4000B242106AD2F804E0D46920F4005024F4BF
:101C5000E64440EA0C3044EA07240ED0334DAA4251
:101C60000BD006F5804605F58045AA4218BFB24262
:101C700003D005F58065AA4204D12EF4804E4D694B
:101C80004EEA851E4D68C2F804E0D4611564106206
:101C9000D0690C6940F40060D061D06920F48060A4
:101CA000D061D16941EA0421D16135E71A68D1F8E0
:101CB00008C0156A0F6825F480351B4E1562B242C4
:101CC000106AD2F804E0546D20F4003024F070045F
:101CD00040EA0C4044EA07040ED0144DAA420BD04F
:101CE00006F5804605F58045AA4218BFB24203D0EA
:101CF00005F58065AA4204D12EF4803E4D694EEA76
:101D0000052E4D68C2F804E0546595651062506D6B
:101D10000C6940F008005065506D20F004005065DB
:101D2000516D21435165F7E6000001400004014078
:101D30008CFFFEFF00400140FF8CFFFE004401408D
:101D40001A68D1F808C0156A0F6825F48075244E0A
:101D50001562B242146A5568D06924F4007420F008
:101D6000730044EA0C2440EA070030D006F5806690
:101D7000B2422CD01B4F1C4EB24218BFBA4203D005
:101D800006F58066B24206D125F440574E698D694A
:101D9000354347EA05154E685560D061D663146235
:101DA000D0690C6940F00800D061D06920F00400CF
:101DB000D061D1692143D161AEE60220704724F0A1
:101DC0008004CE6844EA061424F0400414E724F4A6
:101DD0000064CE6844EA062424F48064D4E700BF9B
:101DE0000000014000400140004401402DE9F04F57
:101DF000DFF8AC918DB04822002109F61C2062F07A
:101E00007DFD09F664204FF43172574962F004FDFC
:101E100099F8283D1BB199F8293D89F81C3A99F8A1
:101E20002A3D1BB199F82B3D89F8403A99F82E3D8F
:101E30001BB199F82F3D89F8343A99F82C3D1BB124
:101E400099F82D3D89F8283A484B0026484A1B88C6
:101E500012881B09474C4849C3EB12102288C9F865
:101E6000403D1309454F464D464CC9F83C3D91FB5A
:101E7000F0F1C9F8441D03E001360C37062E27D0D7
:101E8000042E00F0AE81052E00F0D08138780028B5
:101E9000F2D03D4A002301331E2BEDD012F80C1F67
:101EA0008842F8D103EB430C3848002204EB8C0C39
:101EB0000168EC3029B19CF805141141C90700F103
:101EC000D6840132032AF3D101360C37062ED7D13E
:101ED0002F4C0025DFF8CC802E4FDFF8CCA02E4E03
:101EE000DFF8C8B054F8083C002B00F01881D4F893
:101EF000E020002A00F01381EC22236002FB05920F
:101F0000D2F8C01A41F00201C2F8C01A99689A6862
:101F100001F0040102F008020A43DA6852D092018B
:101F200005D5A18A40F20112914200F0EA829A6836
:101F3000520708D59A68910705D49968174A0A404C
:101F400042F010029A609A68120708D59A689107C1
:101F500005D49968114A0A4042F020029A600C2187
:101F6000D9F8180A2AE000BFB04C0A0820E8F11F8F
:101F700040E8F11F60E8F11F80380100E4460024CA
:101F8000000084CB704B0A08744F0A082C470024C9
:101F900034470024200882E000210240C0FFFF7F78
:101FA000C83C0024300882E0E03000FE00230240FC
:101FB000D9F8182A121A052A00F2B5829A680A423C
:101FC000F6D1DA6842F400122046DA600DF09AF990
:101FD000002800F07082236840F2FF7C9D490022B7
:101FE000D3F804E00EEA0101DFF87CE25960C3F89F
:101FF00000C09968DFF874C221F0A0419960996827
:1020000041F000519960D96801F08021D960D96808
:1020100041F00041D960196921F07F7121F441310B
:1020200021F4787121F003011961596901F04041EF
:102030005961996901F078419961196A01F07C410F
:102040001962596A01F07C415962D3F8B01001F06D
:102050007C41C3F8B010D3F8B41001F07C41C3F850
:10206000B410D3F8B81001F07C41C3F8B810D3F81D
:10207000BC1001F07C41C3F8BC10196B01EA0801E7
:102080001963596B39405963996B39409963D96B1E
:1020900001EA0E0E7049C3F83CE08B42D3F860E0D1
:1020A0001A66D3F864E05A66D3F868E09A66D3F803
:1020B0006CE0DA66D3F8A02002EA0C02C3F8A02094
:1020C000D3F8A42002EA0C02C3F8A420D3F8C0205D
:1020D00002EA0C02C3F8C020D3F8C42002F0F822B0
:1020E000C3F8C42000F06E81B34200F06B815B4BFB
:1020F0009B68DB0704D45A4B9A6802EA0A029A608A
:10210000EC22002302FB0592C2F8C43AC4E917335B
:10211000C2F8C03A84F85030002840F050810135B0
:10212000EC34032D7FF4DEAEDFF844B14FF0000A4B
:10213000D8465746CDF814B0D8F8E830002B40F018
:102140004A81013708F1EC08032FF5D10026DDF8AC
:1021500014B0DFF820813546424FDFF81CA1DBF8D0
:10216000E830002B00F02281DBF808403A4A944224
:1021700000F02681444500F0238139488268A16837
:1021800049072DD49BF85810012929D002F01F02CD
:102190000121092A8BF8581000F2AC8140F221216C
:1021A000D140C90740F1A681A16811F001017BD19E
:1021B000D4F808E0DFF8C4C01EEA0C0F3DD0EC23D1
:1021C00003FB0595D5F8C03A85F8BC1A43F0100317
:1021D000C5F8C03AD5F8C43A43F00103C5F8C43A8B
:1021E000FEE702214FF4002CAE460A46EC200723FE
:1021F0007970012100FB02923878BB72D2F84C3B17
:10220000C7F804E043EA0C037972C2F84C3B00289B
:102210003FF432AE46F042F8F31DDBB210B10022BB
:102220008371C271032142F0B9F825E602214FF40F
:10223000802CDFF84CE00A46D8E7A168394041F02D
:102240000101A160D9F818CA8168C90629D044459E
:1022500027D129E000F8FFFF00200240006002586B
:1022600000630258C0FFFF7F20F8FFFF0000F0FF6F
:102270002C47002400210240002302403F00008040
:102280000000B8CFA168C80704D4A168394041F064
:102290000101A160D9F8181AA1EB0C01022900F282
:1022A000F1832168C907EDD5EC20B149444500FB15
:1022B0000590D0F8C0CA0CEA010141F48071C0F861
:1022C000C01A00D142B9EC2202FB0592D2F8C01A22
:1022D00021F48011C2F8C01AEC2202FB0592D2F858
:1022E000C01A11F4805140F03383C2F8C41A4FEA87
:1022F000530EDBF8540099089E4A0EF0773E01F029
:102300003331C263DA088E449B4902F01132A3EBE9
:102310000E0E0164994B1C21AEEB020EC364FF2329
:1023200021600EEB1E1E626800210EF00F3E42F08F
:1023300010028BF8581004F140016260E268BEFBA5
:10234000F3F322F0030CDBF83420C3EB03234CEA55
:102350000202DFF848C2AEEB0303E2600CEB460278
:102360000BF0C8FBDBF8082093683B4043F0040304
:102370009360002840F0A583DBF8E830804A5908D4
:102380009C0801F07731D80804F0333400F01130A4
:1023900021445B1A1B1A03EB131303F00F33A2FB48
:1023A0000312D209C2EB02229B1A1E4401350BF123
:1023B000EC0B032D7FF4D3AE0DB0BDE8F08FFEE73C
:1023C0005046DBE66F4B9B68B2681343DA073FF574
:1023D00097AE5B4690E6B8F804000425FEF7C4FD0E
:1023E000D8F8E830FF22C8F8185059089C0801F0C6
:1023F0007731D80804F0333400F01130214403243D
:102400005B1AEC211B1AD8F8000001FB079103EBC3
:102410001313C8F808004FF4403003F00F33C8F826
:102420000C000820B3FBF2F2C2EB0222C8F8100045
:1024300001209B1A0022C8F81400C8F820304FF47D
:10244000805388F81D00C8F8280088F81C2088F8F8
:10245000242088F840200692C8E90B22C8E90D43E1
:10246000D1F8C03A002B00F0FD81D8F80850AB68D5
:10247000980003D5AA68444B1340AB60AB6813F0D7
:10248000805F424B1ED00293AB68D9005FD5002419
:10249000AB685A0740F18480EC2303FB0793D3F821
:1024A000C03AEC2303FB0793D3F8C02A42F0100292
:1024B000C3F8C02AFEE7EC23012203FB0593C3F80F
:1024C000C02A88E5A9681A460293314BD2F8B82091
:1024D0000B403049B2FBF1F243F08053AB600692FF
:1024E000069B002BD0D0069B013B0693069B002B3E
:1024F000F9D1C9E7EC22002302FB059585F8BC3A27
:102500006EE61A68500606D4234A01E0013A0AD062
:1025100019684906FAD540221A609A68500700F1F6
:10252000C58204211CE5EC22012002FB0592D2F8B1
:10253000C01A41F01001C2F8C01AD2F8C41A0143FF
:10254000C2F8C41ADA6842F40012DA6043E5EC23F8
:10255000012403FB0793D3F8C02A42F01002C3F80A
:10256000C02AD3F8C42A2243C3F8C42A90E700BF84
:10257000FEF0FFFFD1A30408CDA30408B9A304080B
:102580008180808000200240C0FFFF5F00000024A7
:10259000C0FFFF6F400D030000DC0C0000000030A6
:1025A000EC2303FB0793D3F8C02AD6063FF579AF97
:1025B000D3F8C02A22F4817242F00202C3F8C02A82
:1025C000AB68DB0714D4B04B9D4200F0518203F599
:1025D00080739D4200F04C82AC4B9B68D80707D4B7
:1025E000AB498B68D8F80C2023F47C1313438B6021
:1025F000A84A41F203031268B3EB124FD8F8102037
:10260000C0F0AD81D8F8383098F81D10134398F811
:10261000242043EA413343EA0243012A04D1D8F893
:102620002820013A43EA4243D8F82C202AB102F488
:102630007872D8F830100A431343E968964A0A4082
:102640001343EB60A868AB6800F0040003F00803D4
:10265000184300F02D81D8F80830D8F81420012A4A
:1026600000F024831A6B22F00F021A63EC2606FB9B
:102670000796D6F8C03A06F52C6523F0030343F01D
:102680000103C6F8C03A002C40F0F18198F85830A8
:102690000794012B00F0E38108F108031846049326
:1026A000012388F858300CF02DFE002840F0D88126
:1026B000D6F8C01A794A7A4B0A407A4942F00202A7
:1026C000C6F8C02AD8F808209068034043F00043B9
:1026D00093609368002BC0F2AD81EC220020724E13
:1026E00002FB079201460190D2F8C03A23F003039F
:1026F00043F00103C2F8C03A88F8580006E0019B95
:102700000C360133062B019300F04981737A002BBC
:10271000F5D096F90130BB42F1D1644B00224D1C3B
:1027200086F808A003EB810098F858300AF10101FF
:102730000892012BD0F86C457268039100F02E814D
:10274000D8F808300120996888F85800490700F146
:102750001681C2F3130EBEF1000F40F0B481C2F334
:10276000846C910E00FA0CF0D3F81CB04FEA941A66
:1027700003F1300C04F01F044BEA000B0AF00C00CC
:102780004FF01F0AC3F81CB001EA0A0150F80CB060
:102790000AFA04FAA1402BEA0A0A4AEA010140F8BF
:1027A0000C109868996800F0040001F008010143DA
:1027B00045D1D10DC2F3045B03F114044FF0070AB5
:1027C00001F004014FF0060C0AFA0BFA08590CFA52
:1027D0000BFCDFF8C0B020EA0A0040EA0C00085108
:1027E000DBF8001001F07041B1F1805FD96800D0D2
:1027F000D968196E900601F0F841B1EB826F03D1F0
:10280000196E21F000411966596E01F0F8418842B5
:1028100003D1596E21F000415966996E01F0F841DB
:10282000884203D1996E21F000419966D96E01F07A
:10283000F841884203D1D96E21F00041D9669968E8
:10284000C80708D4D3F8C010002A21EA0E01C3F843
:10285000C010C0F2428100232946DDF80CA088F8A0
:1028600058304CE7C1F8C43A88F85830FDE50C20E0
:102870004FF0010C51B200FB034393F80C04D3F862
:1028800008E40CFA00FCB1E40020024000600258A9
:10289000006302580010005C03C0F0FFFDEEFFFF74
:1028A000C0FFFE3F00F8C325E4460024704B0A0831
:1028B000EB68BF4A98F81C101A40D8F8343042EA46
:1028C000813298F8401013430129EB6000F03E81FB
:1028D0002B6923F001032B612A69D8F83C3022F0E0
:1028E0007042B44913438D422B6100F02781B24BF3
:1028F0009D4200F02381B14B9B6813F4403F14BF0D
:1029000001230023002B00F0758113F0D5F8D8F8CF
:102910000C30B3F5003F00F04781B3F5403F00F0C5
:102920003281B3F5803F00F03F81A54A41F20303B5
:102930001268B3EB124FC0F01C81A24B984240F2D8
:10294000BE81D8F808309A6842F480729A6084E6B2
:10295000D2F8C41A21F00601C2F8C41AC7E4102A3A
:102960007FF450AE98F8242098F81D001104D8F890
:10297000383041EA40310B4343F01C034DE6EC2371
:1029800003FB0793D3F8C02A42F02002C3F8C02A01
:10299000EC23002203FB079383F8BC2AFEE78A4B53
:1029A000FDB202203B44294693F9102042F07CFC02
:1029B00046680446304642F067FC029A411E02EB2C
:1029C000411191F8D420002A7FF4F6AC05F1010CF6
:1029D000019D81F8D5C081F8D45000283FF4ECACBB
:1029E000A3684FF480644FF48071C8F86C60C8F835
:1029F00070304FF400654FF480334FF40056C8F840
:102A00007C4008F16C04C8F87420C8F87820C8E944
:102A10002213C8E920565AF08BFD20460BF014FA19
:102A200020460BF079FB049BC8F85440C8F8A4304A
:102A3000FFF787BB079B01330793079B8B42FFF48C
:102A400048AEEC23002103FB0793D3F8C02A83F898
:102A5000BC1A22F0120242F01002C3F8C02AFEE7AC
:102A60002B6886F8BC4A43F010032B60F7E721E59A
:102A7000504B514A9B6892681343DE073FF5B8AD4F
:102A80005249AEE5EC23002203FB0595D5F8C03A88
:102A900085F8BC2A43F01003C5F8C03AD5F8C43A0B
:102AA00043F00103C5F8C43AFFF79ABB9A68900750
:102AB0003FF537AD9968464A0A4042F010029A60E5
:102AC0002FE5FFF78DBB92FAA2FCBCFA8CFC910EAD
:102AD0000CF01F0C00FA0CF046E636498B4200F071
:102AE000F58001F580718B4200F0F0803949334860
:102AF0008468896804F0E07CC94301F00101002981
:102B00003FF43DAF34498A4200F0018133498A42A3
:102B100000F0ED8032498A427FF49DAE64023FF5B9
:102B20009AAE2C4A93427FF496AE836823F0E0730A
:102B300043EA0C0343F4800383608CE6234B9B68D9
:102B400013F4403F14BF01230023DBE6D8E9123120
:102B5000D8F844200B432E69013AD8F8501043EAC4
:102B60000243204A0B433240134343F001032B61DD
:102B7000B2E61D4B984208D8D8F808309A6822F47B
:102B800040729A6069E58008CFE6184B984267D991
:102B9000174B9842D8F808309A684AD822F4407205
:102BA00042F400729A6058E51B0CB0FBF3F0BCE6EF
:102BB000FCBFFFFF002002400021024000630258DA
:102BC0000010005C002D3101F04900240023024078
:102BD000C0FFFF7F00600258000084CB000052C796
:102BE0000000B8CF1EF800FC21BCBE0041787D017A
:102BF00081F0FA02644A936D03F44033B3F5803FE9
:102C000000F0B180B3F5003F00F0A080002B00F091
:102C1000B380D8F80C30B3F5101F45D00DD8B3F5FC
:102C2000E01F3FD025D9B3F5001F7FF47EAE4009E9
:102C30007BE642F440729A600FE5B3F5201F00F086
:102C4000A080B3F5301F7FF470AE504A41F2030309
:102C50001268B3EB124F32D24D4BB3EB102F8BD225
:102C6000D8F808309A6822F4407242F480729A6070
:102C7000F3E4B3F5801F07D00BD9B3F5A01F03D041
:102C8000B3F5C01F7FF451AE9B0C5B00B0FBF3F0BB
:102C90004BE6B3F5002FF7D023F40022B2F5802FD6
:102CA000F2D042E6000940E680093EE6196BD8F80A
:102CB000202021F00F01013A0A431A63D6E4D8F824
:102CC00008309A6822F480729A60C6E431498C68B0
:102CD0000846A1F5407104F0E07CD1F808A0D1F8D5
:102CE00008E14AEA0E01C94301F0010107E7E201E8
:102CF0003FF5B1AD284A93427FF4ADAD836823F030
:102D0000E07343EA0C0343F080738360A3E5210280
:102D10003FF5A1AD204A93427FF49DAD029B8268AE
:102D2000D3F8B8301D4922F0E072B3FBF1F342EA68
:102D30000C0C5A004CF400038360089202E0089BDC
:102D4000013B0893089B002BF9D184E5D36C13F069
:102D500040530FD0B3F1805F0AD0114AB3F1005F46
:102D600008BF104655E709A80CF07CFE0B9850E709
:102D70000C484EE70C484CE709A80CF01FFF0998D7
:102D800047E7C009D1E500BF004402580010005CCD
:102D900021BCBE000023024000600258400D030029
:102DA00000127A0000093D000090D0032DE9F041A7
:102DB000D0F800E00C46DFF8588084B0DEF804500C
:102DC0001746DFF850C0194605EA0805DDF82880E7
:102DD000064603932C43424644EA0C0CCEF804C04A
:102DE00009F0F8FD78B931680246039B30468F62DE
:102DF0008021CDF8008009F01DFE003818BF0120A9
:102E000004B0BDE8F081012004B0BDE8F08100BF4E
:102E1000009800FC00200181F8B5134F04460D46D0
:102E20000AE09B69DB0602D509F094FDD0B9D7F81A
:102E3000183A5B1B0A2B08D823682A460A21204629
:102E40009E69B606EDD50020F8BD636C20210022F6
:102E500001200B4384F84020636484F8411084F817
:102E60004220F8BD0120F8BDC83C00242DE9F04106
:102E7000D0F800E00C46DFF8588084B0DEF804504B
:102E80001746DFF850C0194605EA0805DDF8288026
:102E9000064603932C43424644EA0C0CCEF804C089
:102EA00009F098FD78B931680246039B30468F627D
:102EB0004021CDF8008009F0BDFD003818BF012089
:102EC00004B0BDE8F081012004B0BDE8F08100BF8E
:102ED000009800FC00200180F8B5474E96F8484D58
:102EE00004EB4403650006EBC30393F84C3D032B4E
:102EF00077D8DFE803F0492A1F02254406EBC50511
:102F0000D5F8503D002B6ED196F8AC2D944268D088
:102F1000013404F003018A4286F8481D61D001EBB8
:102F200041040222184606EBC404C4F8503D84F85C
:102F30004C2DF8BD2B1906EBC303D3F8502D72B1FD
:102F4000013A0020C3F8502DF8BD2B1906EBC3033E
:102F5000D3F8502D002AF3D1022283F84C2D2544BA
:102F600006EBC50595F8583D013BDBB285F8583DA9
:102F7000F3B1224B0120D3F8BC2202F2E733B3FBBA
:102F8000F2F3C5F8503DF8BD48F01EFA48B31B4AAD
:102F900042F20F732C440121D2F8BC2206EBC40488
:102FA000134484F84C1DB3FBF2F3C4F8503DF8BD54
:102FB000124B601C0327D5F8541DD3F8BC223840AF
:102FC00096F8AC4D531E85F84C7D001B0B4418BF82
:102FD00001209A42B3FBF2F188BF0020C5F8501DD2
:102FE00030B90120F8BD013B0020C5F8503DF8BDC7
:102FF0000139C5F8501DF8BDC83C0024000000246C
:10300000054A92F8AD3D002BFBD104480449D0F8A5
:10301000603B0C301B681847C83C0024000000309F
:10302000784A0024F8B5364C05460821D4F8BC0D82
:10303000D4F8186A0CF0D0FA00B1F8BDD4F8001E2C
:10304000D4F8BC0D09040CF067FA0028F5D1D4F8C7
:10305000BC3D4FF0FF31082259629A6201301F28AF
:10306000FCD9DA6A0020274941F2331722F0FF0227
:1030700042F03302DA6298601846DA68114041F291
:1030800088320F433321DF600CF0ACF90028D4D133
:10309000D4F8BC2D8446074640F22A5104E0D4F807
:1030A000183A9B1B01331ED0536B0B42536B09D153
:1030B0001B03F4D40028F2D1D2F880700120D2F89A
:1030C00080C0ECE7190714D4536B9B070ED4506BE8
:1030D00010F0200010D19CFA8CF33FBA0A4991639A
:1030E000C5E90037F8BD4FF00040F8BD02209063FD
:1030F000F8BD08209063F8BD20209063F8BD00BFA4
:10310000C83C0024C0E0FEFF3A0F001870B5114C17
:1031100041F20D13104D41F28832D4F8001ED4F85C
:10312000BC0D0E040D218660C66835402B43C3607C
:103130000CF058F938B1D4F8F02D034600201343B1
:10314000C4F8F03D70BDD4F8BC3D5869C0F34320CD
:1031500070BD00BFC83C0024C0E0FEFF134B30B47C
:10316000D3F8680E0025D3F8702ED3F86C4E20F0FB
:103170001F01C3F8585E04FB0202521ABFF34F8FBF
:10318000AA420DDD013A01F12003094822F01F0295
:103190001A449342C0F85C12194603F12003F8D197
:1031A000BFF34F8FBFF36F8F30BC7047C83C002414
:1031B00000ED00E00B4BD3F8582E3AB1D3F8602E57
:1031C00000210132C3F8581EC3F8602ED3F85C2EDC
:1031D0003AB1D3F8642E00210132C3F85C1EC3F863
:1031E000642E7047C83C002458B183884FF00042D9
:1031F000B3FA83F332FA03F303D002490A681343A4
:103200000B60704780000058002800F0F5802DE921
:10321000F04F848885B0B4FA84F3202BC3F11F02E9
:1032200000F08E80754BDFF8F8819D18036808EB7D
:10323000820295F8AC05C2F8741E0190002C79D07A
:103240000021DFF8E0E16E4F00944FF00109009893
:1032500009FA01F2024069D04FF0030A01FA09FCB1
:103260001D684FF00F0B0AFA0CFC01EA0A0021F06E
:103270000306644C25EA0C05800006F1B046A34223
:103280001D600BFA00F5D3F80CB006F580662BEA4A
:103290000C0CC3F80CC0DEF8F4C04CF0020CCEF8F5
:1032A000F4C0DEF8F4C00CF0020CCDF80CC0DDF870
:1032B0000CC0D6F808C02CEA050526D004F58064B9
:1032C000A34240D0504CA3426ED0504CA34277D082
:1032D0004F4CA3426ED04F4CA34275D0DFF848C18B
:1032E00063457DD0DFF844C163457FD0DFF840C13E
:1032F00063456FD0DFF83CC163450CBF4FF0090C4C
:103300004FF00A0C0CFA00F00543B5604FF0B040E6
:103310003D6815433D607D6825EA02057D600568CE
:1033200015430560456825EA020242600131009AB2
:10333000CA408AD1019B984498F8B43EF02B06D835
:1033400005B0BDE8F08F09FA00F00543DDE7019A0A
:10335000F0212A48304B88F8B41E0244DB68012073
:1033600092F8BC15C3F302222C4D01F01F06C2F1E6
:103370000704131DB040042C28BF0424062B4FF073
:10338000FF338CBF033A0022A3406C184909DB438A
:1033900003F0030393401B01DBB284F8003345F8CC
:1033A000210005B0BDE8F08F4FF0020C0CFA00F0E0
:1033B0000543AAE74FF0040C0CFA00F00543A4E71C
:1033C0000AFA00F00543A0E74FF0050C0CFA00F0F4
:1033D00005439AE74FF0080C0CFA00F0054394E718
:1033E0004FF0060C0CFA00F005438EE74FF0070C87
:1033F0000CFA00F0054388E7704700BF704B0A08DD
:10340000800000580000025800080258000C0258C2
:10341000001002580014025800ED00E000E100E046
:10342000C83C00240044025800180258001C0258EE
:1034300000200258002402582DE9F04FC14C83B0FF
:10344000054694F8BB1ED4F8C00E6F1EC1F34001B0
:1034500045F03AF994F8BB1ED4F8BC0EC94301F00C
:10346000010145F031F9FBB20193002D00F0D0804D
:10347000B54E4FF01009DFF8D882B44DD4F8C00E25
:1034800045F006F9D4F8BC0E45F002F9B4F8C83E90
:10349000002B40F04E8194F8CA1ED4F8CC0E45F0B3
:1034A00013F94FF0FA0A4FF47A710120D8F804307A
:1034B000C3F30803002B40F00F81EFF31183002BBF
:1034C00040F00A81D6F88C22D5F808C0D6F88C32A4
:1034D0009A42F7D1D4F8F03E9C45F3D8D4F8EC7E6C
:1034E00001FB07F3A3EB0C03B3FBF7F301FB023281
:1034F000D8F80430C3F30803002B40F0AB80EFF39F
:103500001183002B40F0A680D6F88C32D5F808B095
:10351000D6F88C72BB42F7D1D4F8F07EBB45F3D815
:10352000D4F8EC7E01FB07FCACEB0B0CBCFBF7FC0E
:1035300001FB03C39B1AB3F57A7FD9D3BAF1010A11
:10354000B4D1D4F8C00E45F0A3F8D4F8BC0E45F0C1
:103550009FF8B4F8C83E002B40F0DF8094F8CA1EF4
:10356000D4F8CC0E81F0010145F0AEF8FA204FF40A
:103570007A714FF0010CD8F80430C3F30803002B24
:1035800040F08980EFF31183002B40F08480D6F85F
:103590008C22D5F808E0D6F88C329A42F7D1D4F8CC
:1035A000F03E9E45F3D8D4F8ECAE01FB0AF3A3EB52
:1035B0000E03B3FBFAF301FB0232D8F80430C3F375
:1035C000080343BBEFF311832BBBD6F88C32D5F83D
:1035D00008B0D6F88C72BB42F7D1D4F8F07EBB4568
:1035E000F3D8D4F8ECAE01FB0AFEAEEB0B0EBEFB3B
:1035F000FAFE01FB03E39B1AB3F57A7FDDD30138B2
:10360000B9D1019B5F1EFBB2FF2B01937FF436AF54
:1036100003B0BDE8F08FEFF3118A89F31288AF6829
:103620002B68DB0302D5C4F8E8CEAF68D6F88C323D
:103630005FFA8AFAD4F8E8EE8AF31188D4F8ECAE8F
:10364000734401FB0AFEAEEB070EBEFBFAFE01FB64
:1036500003E3D0E7EFF3118E89F31288D5F808B0B1
:103660002B68DF0303D5C4F8E80ED5F808B0D6F808
:103670008C325FFA8EFED4F8E8CE8EF31188D4F83F
:10368000EC7E634401FB07FCACEB0B0CBCFBF7FCD2
:1036900001FB03C34EE7EFF3118E89F31288D5F8CF
:1036A00008A02B68DA0303D5C4F8E8CED5F808A043
:1036B000D6F88C325FFA8EFED4F8E82E8EF311889D
:1036C000D4F8ECEE1A4401FB0EF3A3EB0A03B3FBB0
:1036D000FEF301FB023270E7EFF3118C89F31288DD
:1036E000D5F808E02B68DB0303D5C4F8E80ED5F85D
:1036F00008E0D6F88C325FFA8CFCD4F8E82E8CF314
:103700001188D4F8EC7E1A4401FB07F3A3EB0E03F7
:10371000B3FBF7F301FB0232EAE6D4F8E43E002BF8
:103720003FF424AFD4F8D03EC3F800A084F8E1AE53
:103730001CE7D4F8E43E002B3FF4B3AE41F09EFB0F
:10374000AFE600BFC83C0024D02B002410E000E00E
:1037500000ED00E02DE9F04FBD4C83B00523BD4ED8
:1037600094F8BB1E4FF01009D4F8C00EC1F340010D
:10377000019344F0A9FF94F8BB1ED4F8BC0EC943D2
:10378000DFF8D882B44D01F0010144F09DFFD4F878
:10379000C00E44F07DFFD4F8BC0E44F079FFB4F8BD
:1037A000C83E002B40F04C8194F8CA1ED4F8CC0ED1
:1037B00044F08AFF32274FF47A710120D8F80430A0
:1037C000C3F30803002B40F00F81EFF31183002BAC
:1037D00040F00A81D6F88C22D5F808C0D6F88C3291
:1037E0009A42F7D1D4F8F03E9C45F3D8D4F8ECEEE9
:1037F00001FB0EF3A3EB0C03B3FBFEF301FB023260
:10380000D8F80430C3F30803002B40F0AB80EFF38B
:103810001183002B40F0A680D6F88C32D5F808B082
:10382000D6F88CC26345F7D1D4F8F0CEE345F3D88F
:10383000D4F8ECEE01FB0EFCACEB0B0CBCFBFEFC7D
:1038400001FB03C39B1AB3F57A7FD9D3013FB5D1EE
:10385000D4F8C00E44F01CFFD4F8BC0E44F018FF9E
:10386000B4F8C83E002B40F0E08094F8CA1ED4F8AB
:10387000CC0E81F0010144F027FF32204FF47A7121
:103880000127D8F80430C3F30803002B40F08B80E5
:10389000EFF31183002B40F08680D6F88C22D5F808
:1038A00008E0D6F88C329A42F7D1D4F8F03E9E4523
:1038B000F3D8D4F8ECAE01FB0AF3A3EB0E03B3FB91
:1038C000FAF301FB0232D8F80430C3F3080343BB18
:1038D000EFF311832BBBD6F88C32D5F808B0D6F8AD
:1038E0008CE27345F7D1D4F8F0EEF345F3D8D4F871
:1038F000ECAE01FB0AFEAEEB0B0EBEFBFAFE01FBCB
:1039000003E39B1AB3F57A7FDDD30138B9D1019B6C
:103910005F1E17F0FF0301937FF439AF03B0BDE8DA
:10392000F08FEFF3118A89F31288D5F808B02B686D
:10393000DB0303D5C4F8E87ED5F808B0D6F88C329E
:103940005FFA8AFAD4F8E8EE8AF31188D4F8ECAE7C
:10395000734401FB0AFEAEEB0B0EBEFBFAFE01FB4D
:1039600003E3CEE7EFF3118E89F31288D5F808B0A0
:103970002B68DB0303D5C4F8E80ED5F808B0D6F8F9
:103980008C325FFA8EFED4F8E8CE8EF31188D4F82C
:10399000ECEE634401FB0EFCACEB0B0CBCFBFEFC41
:1039A00001FB03C34EE7EFF3118E89F31288D5F8BC
:1039B00008A02B68DA0303D5C4F8E87ED5F808A080
:1039C000D6F88C325FFA8EFED4F8E82E8EF311888A
:1039D000D4F8ECEE1A4401FB0EF3A3EB0A03B3FB9D
:1039E000FEF301FB02326EE7EFF3118C89F31288CC
:1039F000D5F808E02B68DA0303D5C4F8E80ED5F84B
:103A000008E0D6F88C325FFA8CFCD4F8E82E8CF300
:103A10001188D4F8ECCE1A4401FB0CF3A3EB0E038F
:103A2000B3FBFCF301FB0232EAE6D4F8E43E002BE0
:103A30003FF423AFD4F8D03E1F6084F8E17E1CE74A
:103A4000D4F8E43E002B3FF4B5AE41F017FAB1E6EE
:103A5000C83C0024D02B002410E000E000ED00E082
:103A600070B5037884B004461646012B24D0022B8F
:103A70001FD1C36841F080051BB19A8819681204F0
:103A80008A6101230DF10F020DF10E0160688DF8BE
:103A90000E5056F05FFA012332460021606856F05E
:103AA00059FAE3688BB11A6801209B88936104B0CE
:103AB00070BD002004B070BD00920A46417990F9B3
:103AC000040059F047FF04B070BD0120F2E710B4C4
:103AD000B8B10D4CD4F8F43E102B05D105210020CF
:103AE0005DF8044B40F0A0BE03EB4302224482F891
:103AF000F91E012182F8F80E0B4482F8FA1EC4F870
:103B0000F43E5DF8044B7047C83C00242DE9F041B9
:103B10001F4C84B00746884694F8285F1646022D4D
:103B200011D0012D0BD113460091024694F82D1FA0
:103B300094F92C0F59F00EFF04B0BDE8F08100207D
:103B400004B0BDE8F081D4F8343F1BB19A881968FD
:103B500012048A6101230DF10F020DF10E01D4F858
:103B60002C0F8DF80E7056F0F5F9334642460021C1
:103B7000D4F82C0F56F0EEF9D4F8343F33B11A686C
:103B800001209B88936104B0BDE8F0810120D3E758
:103B9000C83C00240378012B01D00020704790F925
:103BA0000420084902EB420201EB421292F8C11FC5
:103BB000202901D018467047D2F8803F9869C0F399
:103BC000C0307047C83C00242DE9F04F037885B021
:103BD00004460E46022B00F08D80012B04D00025F8
:103BE000284605B0BDE8F08F90F904105C4F042919
:103BF00007F80C3CD4BF00250125B1F1FF3F08BFF9
:103C000045F00105002DEAD1DFF868C101EB410262
:103C100048000CEB4212D2F880EFBEF1000FDED06C
:103C200092F8C18FB8F1200FD9D1DEF8188018F4BE
:103C30000048D4D192F8C0EFBEF1010FCFD04FF0C1
:103C40004009DFF834E14FF0210A6479DCF818BA52
:103C500082F8C1AF82F8C29FA7F10C09C2F8C48FE5
:103C6000A2F8AA3FC2F8ACEFB2F8AAEF82F8C03FC0
:103C70001FFA8EF3DFF804E1C2F8A49FFF2BC2F80D
:103C8000B4EF67D8B2F8AAEF4FF000791FFA8EFEB2
:103C9000014434486400324600EB4110CDF800B0D6
:103CA0000CEB4116192321461430A6F8A8EFFFF7B4
:103CB0007DF8002844D1D6F8802F2B49536896F818
:103CC000A85F0B40D6F8B41F2343284C43EA0543B2
:103CD000A14243EA0903536086F8C00F04D0244B85
:103CE000994218BF4FF0F2081368012543EA080310
:103CF000136075E7C3681BB19A88196812048A615A
:103D000001250DF10F020DF10E0160682B468DF8B3
:103D10000E6056F01FF92B460DF10F020DF10E014A
:103D200060688DF80E5056F015F9E368002B3FF4EB
:103D300057AF1A6828469B88936105B0BDE8F08F9D
